{"contracts/EthSpenda.sol":{"EthSpenda":{"abi":[{"inputs":[{"internalType":"address","name":"_ethUsdPriceFeed","type":"address"},{"internalType":"address","name":"_feeCollector","type":"address"},{"internalType":"uint256","name":"_platformFeeRate","type":"uint256"}],"stateMutability":"nonpayable","type":"constructor"},{"inputs":[],"name":"EnforcedPause","type":"error"},{"inputs":[],"name":"ExpectedPause","type":"error"},{"inputs":[{"internalType":"address","name":"owner","type":"address"}],"name":"OwnableInvalidOwner","type":"error"},{"inputs":[{"internalType":"address","name":"account","type":"address"}],"name":"OwnableUnauthorizedAccount","type":"error"},{"inputs":[],"name":"ReentrancyGuardReentrantCall","type":"error"},{"inputs":[{"internalType":"address","name":"token","type":"address"}],"name":"SafeERC20FailedOperation","type":"error"},{"anonymous":false,"inputs":[{"indexed":false,"internalType":"string","name":"countryCode","type":"string"},{"indexed":false,"internalType":"uint256","name":"timestamp","type":"uint256"}],"name":"CountryAdded","type":"event"},{"anonymous":false,"inputs":[{"indexed":false,"internalType":"string","name":"countryCode","type":"string"},{"indexed":false,"internalType":"uint256","name":"timestamp","type":"uint256"}],"name":"CountryRemoved","type":"event"},{"anonymous":false,"inputs":[{"indexed":true,"internalType":"address","name":"token","type":"address"},{"indexed":false,"internalType":"uint256","name":"amount","type":"uint256"},{"indexed":true,"internalType":"address","name":"recipient","type":"address"},{"indexed":false,"internalType":"uint256","name":"timestamp","type":"uint256"}],"name":"EmergencyWithdraw","type":"event"},{"anonymous":false,"inputs":[{"indexed":true,"internalType":"bytes32","name":"requestId","type":"bytes32"},{"indexed":false,"internalType":"uint256","name":"feeAmount","type":"uint256"},{"indexed":false,"internalType":"address","name":"feeCollector","type":"address"},{"indexed":false,"internalType":"uint256","name":"timestamp","type":"uint256"}],"name":"FeeCollected","type":"event"},{"anonymous":false,"inputs":[{"indexed":true,"internalType":"address","name":"operator","type":"address"},{"indexed":false,"internalType":"uint256","name":"timestamp","type":"uint256"}],"name":"OperatorAdded","type":"event"},{"anonymous":false,"inputs":[{"indexed":true,"internalType":"address","name":"operator","type":"address"},{"indexed":false,"internalType":"uint256","name":"timestamp","type":"uint256"}],"name":"OperatorRemoved","type":"event"},{"anonymous":false,"inputs":[{"indexed":true,"internalType":"address","name":"previousOwner","type":"address"},{"indexed":true,"internalType":"address","name":"newOwner","type":"address"}],"name":"OwnershipTransferred","type":"event"},{"anonymous":false,"inputs":[{"indexed":false,"internalType":"address","name":"account","type":"address"}],"name":"Paused","type":"event"},{"anonymous":false,"inputs":[{"indexed":true,"internalType":"address","name":"token","type":"address"},{"indexed":true,"internalType":"address","name":"priceFeed","type":"address"},{"indexed":false,"internalType":"uint256","name":"timestamp","type":"uint256"}],"name":"PriceFeedUpdated","type":"event"},{"anonymous":false,"inputs":[{"indexed":false,"internalType":"string","name":"providerCode","type":"string"},{"indexed":false,"internalType":"uint256","name":"timestamp","type":"uint256"}],"name":"ProviderAdded","type":"event"},{"anonymous":false,"inputs":[{"indexed":false,"internalType":"string","name":"providerCode","type":"string"},{"indexed":false,"internalType":"uint256","name":"timestamp","type":"uint256"}],"name":"ProviderRemoved","type":"event"},{"anonymous":false,"inputs":[{"indexed":true,"internalType":"bytes32","name":"requestId","type":"bytes32"},{"indexed":false,"internalType":"bool","name":"success","type":"bool"},{"indexed":false,"internalType":"string","name":"transactionRef","type":"string"},{"indexed":false,"internalType":"uint256","name":"timestamp","type":"uint256"}],"name":"TransferCompleted","type":"event"},{"anonymous":false,"inputs":[{"indexed":true,"internalType":"bytes32","name":"requestId","type":"bytes32"},{"indexed":false,"internalType":"string","name":"reason","type":"string"},{"indexed":false,"internalType":"uint256","name":"timestamp","type":"uint256"}],"name":"TransferFailed","type":"event"},{"anonymous":false,"inputs":[{"indexed":true,"internalType":"bytes32","name":"requestId","type":"bytes32"},{"indexed":true,"internalType":"address","name":"sender","type":"address"},{"indexed":true,"internalType":"address","name":"token","type":"address"},{"indexed":false,"internalType":"uint256","name":"amount","type":"uint256"},{"indexed":false,"internalType":"string","name":"recipientPhone","type":"string"},{"indexed":false,"internalType":"string","name":"countryCode","type":"string"},{"indexed":false,"internalType":"string","name":"providerCode","type":"string"},{"indexed":false,"internalType":"uint256","name":"usdAmount","type":"uint256"},{"indexed":false,"internalType":"uint256","name":"timestamp","type":"uint256"}],"name":"TransferInitiated","type":"event"},{"anonymous":false,"inputs":[{"indexed":false,"internalType":"address","name":"account","type":"address"}],"name":"Unpaused","type":"event"},{"stateMutability":"payable","type":"fallback"},{"inputs":[],"name":"BASIS_POINTS","outputs":[{"internalType":"uint256","name":"","type":"uint256"}],"stateMutability":"view","type":"function"},{"inputs":[],"name":"MAX_FEE_RATE","outputs":[{"internalType":"uint256","name":"","type":"uint256"}],"stateMutability":"view","type":"function"},{"inputs":[],"name":"MIN_TRANSFER_AMOUNT","outputs":[{"internalType":"uint256","name":"","type":"uint256"}],"stateMutability":"view","type":"function"},{"inputs":[{"internalType":"string","name":"countryCode","type":"string"}],"name":"addCountry","outputs":[],"stateMutability":"nonpayable","type":"function"},{"inputs":[{"internalType":"address","name":"operator","type":"address"}],"name":"addOperator","outputs":[],"stateMutability":"nonpayable","type":"function"},{"inputs":[{"internalType":"string","name":"providerCode","type":"string"}],"name":"addProvider","outputs":[],"stateMutability":"nonpayable","type":"function"},{"inputs":[{"internalType":"address","name":"","type":"address"}],"name":"authorizedOperators","outputs":[{"internalType":"bool","name":"","type":"bool"}],"stateMutability":"view","type":"function"},{"inputs":[{"internalType":"bytes32","name":"requestId","type":"bytes32"},{"internalType":"bool","name":"success","type":"bool"},{"internalType":"string","name":"transactionRef","type":"string"}],"name":"completeTransfer","outputs":[],"stateMutability":"nonpayable","type":"function"},{"inputs":[{"internalType":"address","name":"token","type":"address"},{"internalType":"uint256","name":"amount","type":"uint256"},{"internalType":"address","name":"recipient","type":"address"}],"name":"emergencyWithdraw","outputs":[],"stateMutability":"nonpayable","type":"function"},{"inputs":[],"name":"ethUsdPriceFeed","outputs":[{"internalType":"contract AggregatorV3Interface","name":"","type":"address"}],"stateMutability":"view","type":"function"},{"inputs":[{"internalType":"bytes32","name":"requestId","type":"bytes32"},{"internalType":"string","name":"reason","type":"string"}],"name":"failTransfer","outputs":[],"stateMutability":"nonpayable","type":"function"},{"inputs":[],"name":"feeCollector","outputs":[{"internalType":"address","name":"","type":"address"}],"stateMutability":"view","type":"function"},{"inputs":[{"internalType":"address","name":"token","type":"address"}],"name":"getBalance","outputs":[{"internalType":"uint256","name":"","type":"uint256"}],"stateMutability":"view","type":"function"},{"inputs":[{"internalType":"address","name":"token","type":"address"}],"name":"getLatestPrice","outputs":[{"internalType":"int256","name":"price","type":"int256"},{"internalType":"uint256","name":"updatedAt","type":"uint256"}],"stateMutability":"view","type":"function"},{"inputs":[],"name":"getStats","outputs":[{"internalType":"uint256","name":"_totalTransactions","type":"uint256"},{"internalType":"uint256","name":"_totalVolumeUSD","type":"uint256"},{"internalType":"uint256","name":"_platformFeeRate","type":"uint256"},{"internalType":"bool","name":"_isPaused","type":"bool"}],"stateMutability":"view","type":"function"},{"inputs":[{"internalType":"address","name":"token","type":"address"},{"internalType":"uint256","name":"amount","type":"uint256"}],"name":"getUSDValue","outputs":[{"internalType":"uint256","name":"","type":"uint256"}],"stateMutability":"view","type":"function"},{"inputs":[{"internalType":"address","name":"token","type":"address"},{"internalType":"uint256","name":"amount","type":"uint256"},{"internalType":"string","name":"recipientPhone","type":"string"},{"internalType":"string","name":"countryCode","type":"string"},{"internalType":"string","name":"providerCode","type":"string"}],"name":"initiateTransfer","outputs":[{"internalType":"bytes32","name":"requestId","type":"bytes32"}],"stateMutability":"payable","type":"function"},{"inputs":[{"internalType":"address","name":"operator","type":"address"}],"name":"isAuthorizedOperator","outputs":[{"internalType":"bool","name":"","type":"bool"}],"stateMutability":"view","type":"function"},{"inputs":[{"internalType":"string","name":"countryCode","type":"string"}],"name":"isCountrySupported","outputs":[{"internalType":"bool","name":"","type":"bool"}],"stateMutability":"view","type":"function"},{"inputs":[{"internalType":"string","name":"providerCode","type":"string"}],"name":"isProviderSupported","outputs":[{"internalType":"bool","name":"","type":"bool"}],"stateMutability":"view","type":"function"},{"inputs":[],"name":"owner","outputs":[{"internalType":"address","name":"","type":"address"}],"stateMutability":"view","type":"function"},{"inputs":[],"name":"pause","outputs":[],"stateMutability":"nonpayable","type":"function"},{"inputs":[],"name":"paused","outputs":[{"internalType":"bool","name":"","type":"bool"}],"stateMutability":"view","type":"function"},{"inputs":[],"name":"platformFeeRate","outputs":[{"internalType":"uint256","name":"","type":"uint256"}],"stateMutability":"view","type":"function"},{"inputs":[{"internalType":"address","name":"","type":"address"}],"name":"priceFeeds","outputs":[{"internalType":"contract AggregatorV3Interface","name":"","type":"address"}],"stateMutability":"view","type":"function"},{"inputs":[{"internalType":"bytes32","name":"","type":"bytes32"}],"name":"processedTransactions","outputs":[{"internalType":"bool","name":"","type":"bool"}],"stateMutability":"view","type":"function"},{"inputs":[{"internalType":"string","name":"countryCode","type":"string"}],"name":"removeCountry","outputs":[],"stateMutability":"nonpayable","type":"function"},{"inputs":[{"internalType":"address","name":"operator","type":"address"}],"name":"removeOperator","outputs":[],"stateMutability":"nonpayable","type":"function"},{"inputs":[{"internalType":"string","name":"providerCode","type":"string"}],"name":"removeProvider","outputs":[],"stateMutability":"nonpayable","type":"function"},{"inputs":[],"name":"renounceOwnership","outputs":[],"stateMutability":"nonpayable","type":"function"},{"inputs":[{"internalType":"address","name":"priceFeed","type":"address"}],"name":"setEthPriceFeed","outputs":[],"stateMutability":"nonpayable","type":"function"},{"inputs":[{"internalType":"address","name":"newFeeCollector","type":"address"}],"name":"setFeeCollector","outputs":[],"stateMutability":"nonpayable","type":"function"},{"inputs":[{"internalType":"uint256","name":"newFeeRate","type":"uint256"}],"name":"setPlatformFeeRate","outputs":[],"stateMutability":"nonpayable","type":"function"},{"inputs":[{"internalType":"address","name":"token","type":"address"},{"internalType":"address","name":"priceFeed","type":"address"}],"name":"setPriceFeed","outputs":[],"stateMutability":"nonpayable","type":"function"},{"inputs":[{"internalType":"string","name":"","type":"string"}],"name":"supportedCountries","outputs":[{"internalType":"bool","name":"","type":"bool"}],"stateMutability":"view","type":"function"},{"inputs":[{"internalType":"string","name":"","type":"string"}],"name":"supportedProviders","outputs":[{"internalType":"bool","name":"","type":"bool"}],"stateMutability":"view","type":"function"},{"inputs":[],"name":"totalTransactions","outputs":[{"internalType":"uint256","name":"","type":"uint256"}],"stateMutability":"view","type":"function"},{"inputs":[],"name":"totalVolumeUSD","outputs":[{"internalType":"uint256","name":"","type":"uint256"}],"stateMutability":"view","type":"function"},{"inputs":[{"internalType":"address","name":"newOwner","type":"address"}],"name":"transferOwnership","outputs":[],"stateMutability":"nonpayable","type":"function"},{"inputs":[],"name":"unpause","outputs":[],"stateMutability":"nonpayable","type":"function"},{"stateMutability":"payable","type":"receive"}],"evm":{"bytecode":{"linkReferences":{},"object":"60806040523480156200001157600080fd5b5060405162002c6038038062002c6083398101604081905262000034916200053f565b33806200005c57604051631e4fbdf760e01b8152600060048201526024015b60405180910390fd5b620000678162000355565b50600180556001600160a01b038316620000c45760405162461bcd60e51b815260206004820152601660248201527f496e76616c696420455448207072696365206665656400000000000000000000604482015260640162000053565b6001600160a01b0382166200011c5760405162461bcd60e51b815260206004820152601560248201527f496e76616c69642066656520636f6c6c6563746f720000000000000000000000604482015260640162000053565b6101f4811115620001645760405162461bcd60e51b815260206004820152601160248201527008ccaca40e4c2e8ca40e8dede40d0d2ced607b1b604482015260640162000053565b600680546001600160a01b038086166001600160a01b03199283161790925560048054928516929091169190911790556003819055336000908152600c6020908152604091829020805460ff19166001179055815180830190925260028252614b4560f01b90820152620001d890620003a5565b6040805180820190915260028152614e4760f01b6020820152620001fc90620003a5565b60408051808201909152600281526108e960f31b60208201526200022090620003a5565b604080518082019091526002815261554760f01b60208201526200024490620003a5565b6040805180820190915260028152612a2d60f11b60208201526200026890620003a5565b604080518082019091526002815261525760f01b60208201526200028c90620003a5565b6040805180820190915260058152646d7065736160d81b6020820152620002b39062000469565b604080518082019091526006815265185a5c9d195b60d21b6020820152620002db9062000469565b6040805180820190915260048152636f70617960e01b6020820152620003019062000469565b6040805180820190915260048152636b75646160e01b6020820152620003279062000469565b60408051808201909152600381526236ba3760e91b60208201526200034c9062000469565b50505062000601565b600080546001600160a01b038381166001600160a01b0319831681178455604051919092169283917f8be0079c531659141344cd1fd0a4f28419497f9722a3daafe3b4186f6b6457e09190a35050565b8051600214620003f85760405162461bcd60e51b815260206004820152601460248201527f496e76616c696420636f756e74727920636f6465000000000000000000000000604482015260640162000053565b60016008826040516200040c9190620005a6565b908152604051908190036020018120805492151560ff19909316929092179091557ff464db501510e8bbed44605f63fe36d73807cb733cb64eaa262bb31227eed042906200045e9083904290620005c4565b60405180910390a150565b6000815111620004bc5760405162461bcd60e51b815260206004820152601560248201527f496e76616c69642070726f766964657220636f64650000000000000000000000604482015260640162000053565b6001600782604051620004d09190620005a6565b908152604051908190036020018120805492151560ff19909316929092179091557ff083c4fb73c9e6df4d08b4605c1a92c56d967d8fb66d96438b4e78349cf5a5a7906200045e9083904290620005c4565b80516001600160a01b03811681146200053a57600080fd5b919050565b6000806000606084860312156200055557600080fd5b620005608462000522565b9250620005706020850162000522565b9150604084015190509250925092565b60005b838110156200059d57818101518382015260200162000583565b50506000910152565b60008251620005ba81846020870162000580565b9190910192915050565b6040815260008351806040840152620005e581606085016020880162000580565b602083019390935250601f91909101601f191601606001919050565b61264f80620006116000396000f3fe60806040526004361061023f5760003560e01c80639291ccd51161012e578063c415b95c116100ab578063e1f1c4a71161006f578063e1f1c4a714610762578063eeca08f014610778578063f2fde38b1461078e578063f8b2cb4f146107ae578063fa76dcf2146107ce57610246565b8063c415b95c146106ab578063c59d4847146106cb578063c87e435914610702578063dbe3fe1d14610722578063dfbf509b1461074257610246565b8063ac2e4936116100f2578063ac2e493614610605578063ac8a584a14610635578063afff796614610655578063b9a6003814610675578063c011c9eb1461068b57610246565b80639291ccd51461056357806392f6576e146105795780639870d7fe1461058f5780639dcb511a146105af578063a42dce80146105e557610246565b80635c975abb116101bc578063819d938f11610180578063819d938f146104d057806382d52c1e146104f05780638456cb59146105105780638da5cb5b14610525578063927fef2e1461054357610246565b80635c975abb14610435578063715018a61461044d57806372fcfaf714610462578063734c5f3d1461049d57806376e11286146104b057610246565b80633f4ba83a116102035780633f4ba83a1461036d57806342f6fb29146103825780634a54870a146103ba578063551512de146103f55780635806669f1461041557610246565b8063063250d814610288578063106b2192146102bd57806316345f18146102df578063181d989b146103145780633c3dbbc71461034457610246565b3661024657005b60405162461bcd60e51b8152602060048201526012602482015271119d5b98dd1a5bdb881b9bdd08199bdd5b9960721b60448201526064015b60405180910390fd5b34801561029457600080fd5b506102a86102a3366004611ff7565b6107ee565b60405190151581526020015b60405180910390f35b3480156102c957600080fd5b506102dd6102d8366004611ff7565b610819565b005b3480156102eb57600080fd5b506102ff6102fa36600461204b565b61088e565b604080519283526020830191909152016102b4565b34801561032057600080fd5b506102a861032f36600461204b565b600c6020526000908152604090205460ff1681565b34801561035057600080fd5b5061035f66038d7ea4c6800081565b6040519081526020016102b4565b34801561037957600080fd5b506102dd610993565b34801561038e57600080fd5b506006546103a2906001600160a01b031681565b6040516001600160a01b0390911681526020016102b4565b3480156103c657600080fd5b506102a86103d5366004611ff7565b805160208183018101805160088252928201919093012091525460ff1681565b34801561040157600080fd5b506102dd610410366004612066565b6109a5565b34801561042157600080fd5b506102dd610430366004611ff7565b610b5d565b34801561044157600080fd5b5060025460ff166102a8565b34801561045957600080fd5b506102dd610bc7565b34801561046e57600080fd5b506102a861047d366004611ff7565b805160208183018101805160078252928201919093012091525460ff1681565b61035f6104ab3660046120a2565b610bd9565b3480156104bc57600080fd5b506102dd6104cb366004612145565b611073565b3480156104dc57600080fd5b506102dd6104eb366004612178565b61112b565b3480156104fc57600080fd5b506102a861050b36600461204b565b61122a565b34801561051c57600080fd5b506102dd611264565b34801561053157600080fd5b506000546001600160a01b03166103a2565b34801561054f57600080fd5b506102dd61055e3660046121bf565b611274565b34801561056f57600080fd5b5061035f600b5481565b34801561058557600080fd5b5061035f6101f481565b34801561059b57600080fd5b506102dd6105aa36600461204b565b6112c7565b3480156105bb57600080fd5b506103a26105ca36600461204b565b6005602052600090815260409020546001600160a01b031681565b3480156105f157600080fd5b506102dd61060036600461204b565b611378565b34801561061157600080fd5b506102a86106203660046121bf565b60096020526000908152604090205460ff1681565b34801561064157600080fd5b506102dd61065036600461204b565b6113f0565b34801561066157600080fd5b506102dd610670366004611ff7565b61144a565b34801561068157600080fd5b5061035f600a5481565b34801561069757600080fd5b506102dd6106a636600461204b565b61145e565b3480156106b757600080fd5b506004546103a2906001600160a01b031681565b3480156106d757600080fd5b506106e0611508565b60408051948552602085019390935291830152151560608201526080016102b4565b34801561070e57600080fd5b506102dd61071d366004611ff7565b611531565b34801561072e57600080fd5b506102dd61073d3660046121d8565b611542565b34801561074e57600080fd5b506102a861075d366004611ff7565b611685565b34801561076e57600080fd5b5061035f61271081565b34801561078457600080fd5b5061035f60035481565b34801561079a57600080fd5b506102dd6107a936600461204b565b611697565b3480156107ba57600080fd5b5061035f6107c936600461204b565b6116d2565b3480156107da57600080fd5b5061035f6107e9366004612236565b611756565b60006008826040516108009190612284565b9081526040519081900360200190205460ff1692915050565b610821611769565b60006008826040516108339190612284565b908152604051908190036020018120805492151560ff19909316929092179091557f5d689b0e5badbab766b19be0c0b89e98b1c3525dc9762f3169c7be9fc1602ef49061088390839042906122cc565b60405180910390a150565b600080806001600160a01b038416156108c1576001600160a01b03808516600090815260056020526040902054166108ce565b6006546001600160a01b03165b90506001600160a01b0381166109225760405162461bcd60e51b8152602060048201526019602482015278141c9a58d94819995959081b9bdd0818dbdb999a59dd5c9959603a1b604482015260640161027f565b806001600160a01b031663feaf968c6040518163ffffffff1660e01b815260040160a060405180830381865afa158015610960573d6000803e3d6000fd5b505050506040513d601f19601f820116820180604052508101906109849190612308565b50919791965090945050505050565b61099b611769565b6109a3611796565b565b6109ad611769565b6109b56117e8565b6001600160a01b0381166109ff5760405162461bcd60e51b8152602060048201526011602482015270125b9d985b1a59081c9958da5c1a595b9d607a1b604482015260640161027f565b6001600160a01b038316610afc5781471015610a5d5760405162461bcd60e51b815260206004820152601860248201527f496e73756666696369656e74204554482062616c616e63650000000000000000604482015260640161027f565b6000816001600160a01b03168360405160006040518083038185875af1925050503d8060008114610aaa576040519150601f19603f3d011682016040523d82523d6000602084013e610aaf565b606091505b5050905080610af65760405162461bcd60e51b8152602060048201526013602482015272115512081d1c985b9cd9995c8819985a5b1959606a1b604482015260640161027f565b50610b10565b610b106001600160a01b038416828461180b565b604080518381524260208201526001600160a01b0380841692908616917fbbae553982d541d38dacb1ea468ac757f324d0e279b6e4a2958f9e894da575ff910160405180910390a3505050565b610b65611769565b6000600782604051610b779190612284565b908152604051908190036020018120805492151560ff19909316929092179091557f6f840862762ab2140262affe05855c4290d4c8c8ae62514860be324c254d1ff19061088390839042906122cc565b610bcf611769565b6109a3600061186a565b6000610be36118ba565b610beb6118e4565b858585858566038d7ea4c68000841015610c3e5760405162461bcd60e51b8152602060048201526014602482015273416d6f756e742062656c6f77206d696e696d756d60601b604482015260640161027f565b600a83511015610c875760405162461bcd60e51b815260206004820152601460248201527324b73b30b634b210383437b73290373ab6b132b960611b604482015260640161027f565b600882604051610c979190612284565b9081526040519081900360200190205460ff16610cee5760405162461bcd60e51b815260206004820152601560248201527410dbdd5b9d1c9e481b9bdd081cdd5c1c1bdc9d1959605a1b604482015260640161027f565b600781604051610cfe9190612284565b9081526040519081900360200190205460ff16610d565760405162461bcd60e51b8152602060048201526016602482015275141c9bdd9a59195c881b9bdd081cdd5c1c1bdc9d195960521b604482015260640161027f565b6001600160a01b038516610dae57833414610da95760405162461bcd60e51b815260206004820152601360248201527208aa89040c2dadeeadce840dad2e6dac2e8c6d606b1b604482015260640161027f565b610eb4565b3415610dfc5760405162461bcd60e51b815260206004820152601c60248201527f4554482073656e74207769746820746f6b656e207472616e7366657200000000604482015260640161027f565b6040516370a0823160e01b815233600482015284906001600160a01b038716906370a0823190602401602060405180830381865afa158015610e42573d6000803e3d6000fd5b505050506040513d601f19601f82011682018060405250810190610e669190612358565b1015610eb45760405162461bcd60e51b815260206004820152601a60248201527f496e73756666696369656e7420746f6b656e2062616c616e6365000000000000604482015260640161027f565b600a54604051610ed49133918e918e918e918e918e914291602001612371565b60408051601f1981840301815291815281516020928301206000818152600990935291205490965060ff1615610f445760405162461bcd60e51b8152602060048201526015602482015274223ab83634b1b0ba32903a3930b739b0b1ba34b7b760591b604482015260640161027f565b6000610f508c8c611908565b905060008111610f9b5760405162461bcd60e51b815260206004820152601660248201527524b73b30b634b2102aa9a21031b7b73b32b939b4b7b760511b604482015260640161027f565b6000610fa88d8d8a611ba0565b600a80549192506000610fba8361240e565b919050555081600b6000828254610fd19190612427565b925050819055506001600960008a815260200190815260200160002060006101000a81548160ff0219169083151502179055508c6001600160a01b0316336001600160a01b0316897facf46fd934181961784e06d92e08aebdfb9dd4e38ce3af31c9feac1cca034511848f8f8f89426040516110529695949392919061243a565b60405180910390a45050505050505061106a60018055565b95945050505050565b61107b611769565b6001600160a01b0381166110c65760405162461bcd60e51b8152602060048201526012602482015271125b9d985b1a59081c1c9a58d9481999595960721b604482015260640161027f565b6001600160a01b0382811660008181526005602090815260409182902080546001600160a01b031916948616948517905590514281527f9133c44a288cf07c9e3c56b4d0cb5982200a180e0c9ea030485ca93950ef19bf910160405180910390a35050565b336000908152600c602052604090205460ff168061115357506000546001600160a01b031633145b6111995760405162461bcd60e51b81526020600482015260176024820152762737ba1030baba3437b934bd32b21037b832b930ba37b960491b604482015260640161027f565b60008281526009602052604090205460ff166111ec5760405162461bcd60e51b8152602060048201526012602482015271125b9d985b1a59081c995c5d595cdd08125160721b604482015260640161027f565b817feb0989ab516a5d9116892d747db45aacb7c7102c62f16c5bc2115e6e1ecc513b824260405161121e9291906122cc565b60405180910390a25050565b6001600160a01b0381166000908152600c602052604081205460ff168061125e57506000546001600160a01b038381169116145b92915050565b61126c611769565b6109a3611d12565b61127c611769565b6101f48111156112c25760405162461bcd60e51b815260206004820152601160248201527008ccaca40e4c2e8ca40e8dede40d0d2ced607b1b604482015260640161027f565b600355565b6112cf611769565b6001600160a01b0381166113185760405162461bcd60e51b815260206004820152601060248201526f24b73b30b634b21037b832b930ba37b960811b604482015260640161027f565b6001600160a01b0381166000818152600c602052604090819020805460ff19166001179055517fcbcb793495a5fd793da61a1d62ab99b58925f94b0a61beeec3ea7d7d6c4f25949061136d9042815260200190565b60405180910390a250565b611380611769565b6001600160a01b0381166113ce5760405162461bcd60e51b815260206004820152601560248201527424b73b30b634b2103332b29031b7b63632b1ba37b960591b604482015260640161027f565b600480546001600160a01b0319166001600160a01b0392909216919091179055565b6113f8611769565b6001600160a01b0381166000818152600c602052604090819020805460ff19169055517f2360404a74478febece1a14f11275f22ada88d19ef96f7d785913010bfff44799061136d9042815260200190565b611452611769565b61145b81611d4f565b50565b611466611769565b6001600160a01b0381166114b15760405162461bcd60e51b8152602060048201526012602482015271125b9d985b1a59081c1c9a58d9481999595960721b604482015260640161027f565b600680546001600160a01b0319166001600160a01b0383169081179091556040514281526000907f9133c44a288cf07c9e3c56b4d0cb5982200a180e0c9ea030485ca93950ef19bf9060200160405180910390a350565b600080600080600a54600b5460035461152360025460ff1690565b935093509350935090919293565b611539611769565b61145b81611dfa565b336000908152600c602052604090205460ff168061156a57506000546001600160a01b031633145b6115b05760405162461bcd60e51b81526020600482015260176024820152762737ba1030baba3437b934bd32b21037b832b930ba37b960491b604482015260640161027f565b60008381526009602052604090205460ff166116035760405162461bcd60e51b8152602060048201526012602482015271125b9d985b1a59081c995c5d595cdd08125160721b604482015260640161027f565b811561164b57827f36796c4b92b8c2b6a7cfe50b2de3d8d99cfa99a3956394f9002fd6a9abdf2e056001834260405161163e9392919061248f565b60405180910390a2505050565b827f36796c4b92b8c2b6a7cfe50b2de3d8d99cfa99a3956394f9002fd6a9abdf2e056000834260405161163e9392919061248f565b505050565b60006007826040516108009190612284565b61169f611769565b6001600160a01b0381166116c957604051631e4fbdf760e01b81526000600482015260240161027f565b61145b8161186a565b60006001600160a01b0382166116e9575047919050565b6040516370a0823160e01b81523060048201526001600160a01b038316906370a0823190602401602060405180830381865afa15801561172d573d6000803e3d6000fd5b505050506040513d601f19601f8201168201806040525081019061125e9190612358565b919050565b60006117628383611908565b9392505050565b6000546001600160a01b031633146109a35760405163118cdaa760e01b815233600482015260240161027f565b61179e6117e8565b6002805460ff191690557f5db9ee0a495bf2e6ff9c91a7834c1ba4fdd244a5e8aa4e537bd38aeae4b073aa335b6040516001600160a01b03909116815260200160405180910390a1565b60025460ff166109a357604051638dfc202b60e01b815260040160405180910390fd5b6040516001600160a01b0383811660248301526044820183905261168091859182169063a9059cbb906064015b604051602081830303815290604052915060e01b6020820180516001600160e01b038381831617835250505050611ea4565b600080546001600160a01b038381166001600160a01b0319831681178455604051919092169283917f8be0079c531659141344cd1fd0a4f28419497f9722a3daafe3b4186f6b6457e09190a35050565b6002600154036118dd57604051633ee5aeb560e01b815260040160405180910390fd5b6002600155565b60025460ff16156109a35760405163d93c066560e01b815260040160405180910390fd5b6000806001600160a01b03841661192b57506006546001600160a01b0316611990565b506001600160a01b0380841660009081526005602052604090205416806119905760405162461bcd60e51b8152602060048201526019602482015278141c9a58d94819995959081b9bdd0818dbdb999a59dd5c9959603a1b604482015260640161027f565b600080826001600160a01b031663feaf968c6040518163ffffffff1660e01b815260040160a060405180830381865afa1580156119d1573d6000803e3d6000fd5b505050506040513d601f19601f820116820180604052508101906119f59190612308565b5093505092505060008213611a3c5760405162461bcd60e51b815260206004820152600d60248201526c496e76616c696420707269636560981b604482015260640161027f565b611a48610e10426124ba565b8111611a8b5760405162461bcd60e51b8152602060048201526012602482015271141c9a58d94819185d18481d1bdbc81bdb1960721b604482015260640161027f565b6000836001600160a01b031663313ce5676040518163ffffffff1660e01b8152600401602060405180830381865afa158015611acb573d6000803e3d6000fd5b505050506040513d601f19601f82011682018060405250810190611aef91906124cd565b905060006001600160a01b038816611b0957506012611b75565b876001600160a01b031663313ce5676040518163ffffffff1660e01b8152600401602060405180830381865afa925050508015611b63575060408051601f3d908101601f19168201909252611b60918101906124cd565b60015b611b6f57506012611b75565b60ff1690505b611b8081600a6125d4565b611b8a85896125e0565b611b9491906125f7565b98975050505050505050565b600354829015611cee57600061271060035485611bbd91906125e0565b611bc791906125f7565b9050611bd381856124ba565b91506001600160a01b038516611c82576004546040516000916001600160a01b03169083908381818185875af1925050503d8060008114611c30576040519150601f19603f3d011682016040523d82523d6000602084013e611c35565b606091505b5050905080611c7c5760405162461bcd60e51b8152602060048201526013602482015272119959481d1c985b9cd9995c8819985a5b1959606a1b604482015260640161027f565b50611c9e565b600454611c9e906001600160a01b038781169133911684611f1b565b600454604080518381526001600160a01b039092166020830152429082015283907f8d0a66b92fb5d5d906102b70251287ffb5254f3578eb366555f99042e800633f9060600160405180910390a2505b6001600160a01b03841615611762576117626001600160a01b038516333084611f1b565b611d1a6118e4565b6002805460ff191660011790557f62e78cea01bee320cd4e420270b5ea74000d11b0c9f74754ebdbfc544b05a2586117cb3390565b6000815111611d985760405162461bcd60e51b8152602060048201526015602482015274496e76616c69642070726f766964657220636f646560581b604482015260640161027f565b6001600782604051611daa9190612284565b908152604051908190036020018120805492151560ff19909316929092179091557ff083c4fb73c9e6df4d08b4605c1a92c56d967d8fb66d96438b4e78349cf5a5a79061088390839042906122cc565b8051600214611e425760405162461bcd60e51b8152602060048201526014602482015273496e76616c696420636f756e74727920636f646560601b604482015260640161027f565b6001600882604051611e549190612284565b908152604051908190036020018120805492151560ff19909316929092179091557ff464db501510e8bbed44605f63fe36d73807cb733cb64eaa262bb31227eed0429061088390839042906122cc565b600080602060008451602086016000885af180611ec7576040513d6000823e3d81fd5b50506000513d91508115611edf578060011415611eec565b6001600160a01b0384163b155b15611f1557604051635274afe760e01b81526001600160a01b038516600482015260240161027f565b50505050565b6040516001600160a01b038481166024830152838116604483015260648201839052611f159186918216906323b872dd90608401611838565b634e487b7160e01b600052604160045260246000fd5b600082601f830112611f7b57600080fd5b813567ffffffffffffffff80821115611f9657611f96611f54565b604051601f8301601f19908116603f01168101908282118183101715611fbe57611fbe611f54565b81604052838152866020858801011115611fd757600080fd5b836020870160208301376000602085830101528094505050505092915050565b60006020828403121561200957600080fd5b813567ffffffffffffffff81111561202057600080fd5b61202c84828501611f6a565b949350505050565b80356001600160a01b038116811461175157600080fd5b60006020828403121561205d57600080fd5b61176282612034565b60008060006060848603121561207b57600080fd5b61208484612034565b92506020840135915061209960408501612034565b90509250925092565b600080600080600060a086880312156120ba57600080fd5b6120c386612034565b945060208601359350604086013567ffffffffffffffff808211156120e757600080fd5b6120f389838a01611f6a565b9450606088013591508082111561210957600080fd5b61211589838a01611f6a565b9350608088013591508082111561212b57600080fd5b5061213888828901611f6a565b9150509295509295909350565b6000806040838503121561215857600080fd5b61216183612034565b915061216f60208401612034565b90509250929050565b6000806040838503121561218b57600080fd5b82359150602083013567ffffffffffffffff8111156121a957600080fd5b6121b585828601611f6a565b9150509250929050565b6000602082840312156121d157600080fd5b5035919050565b6000806000606084860312156121ed57600080fd5b833592506020840135801515811461220457600080fd5b9150604084013567ffffffffffffffff81111561222057600080fd5b61222c86828701611f6a565b9150509250925092565b6000806040838503121561224957600080fd5b61225283612034565b946020939093013593505050565b60005b8381101561227b578181015183820152602001612263565b50506000910152565b60008251612296818460208701612260565b9190910192915050565b600081518084526122b8816020860160208601612260565b601f01601f19169290920160200192915050565b6040815260006122df60408301856122a0565b90508260208301529392505050565b805169ffffffffffffffffffff8116811461175157600080fd5b600080600080600060a0868803121561232057600080fd5b612329866122ee565b945060208601519350604086015192506060860151915061234c608087016122ee565b90509295509295909350565b60006020828403121561236a57600080fd5b5051919050565b60006bffffffffffffffffffffffff19808b60601b168352808a60601b1660148401525087602883015286516123ae816048850160208b01612260565b8651908301906123c5816048840160208b01612260565b86519101906123db816048840160208a01612260565b016048810194909452505060688201526088019695505050505050565b634e487b7160e01b600052601160045260246000fd5b600060018201612420576124206123f8565b5060010190565b8082018082111561125e5761125e6123f8565b86815260c06020820152600061245360c08301886122a0565b828103604084015261246581886122a0565b9050828103606084015261247981876122a0565b6080840195909552505060a00152949350505050565b83151581526060602082015260006124aa60608301856122a0565b9050826040830152949350505050565b8181038181111561125e5761125e6123f8565b6000602082840312156124df57600080fd5b815160ff8116811461176257600080fd5b600181815b8085111561252b578160001904821115612511576125116123f8565b8085161561251e57918102915b93841c93908002906124f5565b509250929050565b6000826125425750600161125e565b8161254f5750600061125e565b8160018114612565576002811461256f5761258b565b600191505061125e565b60ff841115612580576125806123f8565b50506001821b61125e565b5060208310610133831016604e8410600b84101617156125ae575081810a61125e565b6125b883836124f0565b80600019048211156125cc576125cc6123f8565b029392505050565b60006117628383612533565b808202811582820484141761125e5761125e6123f8565b60008261261457634e487b7160e01b600052601260045260246000fd5b50049056fea26469706673582212204d442596679dbb8b2bee662524dbdabf3cd48c9faae685876180a04072bfb40c64736f6c63430008180033","opcodes":"PUSH1 0x80 PUSH1 0x40 MSTORE CALLVALUE DUP1 ISZERO PUSH3 0x11 JUMPI PUSH1 0x0 DUP1 REVERT JUMPDEST POP PUSH1 0x40 MLOAD PUSH3 0x2C60 CODESIZE SUB DUP1 PUSH3 0x2C60 DUP4 CODECOPY DUP2 ADD PUSH1 0x40 DUP2 SWAP1 MSTORE PUSH3 0x34 SWAP2 PUSH3 0x53F JUMP JUMPDEST CALLER DUP1 PUSH3 0x5C JUMPI PUSH1 0x40 MLOAD PUSH4 0x1E4FBDF7 PUSH1 0xE0 SHL DUP2 MSTORE PUSH1 0x0 PUSH1 0x4 DUP3 ADD MSTORE PUSH1 0x24 ADD JUMPDEST PUSH1 0x40 MLOAD DUP1 SWAP2 SUB SWAP1 REVERT JUMPDEST PUSH3 0x67 DUP2 PUSH3 0x355 JUMP JUMPDEST POP PUSH1 0x1 DUP1 SSTORE PUSH1 0x1 PUSH1 0x1 PUSH1 0xA0 SHL SUB DUP4 AND PUSH3 0xC4 JUMPI PUSH1 0x40 MLOAD PUSH3 0x461BCD PUSH1 0xE5 SHL DUP2 MSTORE PUSH1 0x20 PUSH1 0x4 DUP3 ADD MSTORE PUSH1 0x16 PUSH1 0x24 DUP3 ADD MSTORE PUSH32 0x496E76616C696420455448207072696365206665656400000000000000000000 PUSH1 0x44 DUP3 ADD MSTORE PUSH1 0x64 ADD PUSH3 0x53 JUMP JUMPDEST PUSH1 0x1 PUSH1 0x1 PUSH1 0xA0 SHL SUB DUP3 AND PUSH3 0x11C JUMPI PUSH1 0x40 MLOAD PUSH3 0x461BCD PUSH1 0xE5 SHL DUP2 MSTORE PUSH1 0x20 PUSH1 0x4 DUP3 ADD MSTORE PUSH1 0x15 PUSH1 0x24 DUP3 ADD MSTORE PUSH32 0x496E76616C69642066656520636F6C6C6563746F720000000000000000000000 PUSH1 0x44 DUP3 ADD MSTORE PUSH1 0x64 ADD PUSH3 0x53 JUMP JUMPDEST PUSH2 0x1F4 DUP2 GT ISZERO PUSH3 0x164 JUMPI PUSH1 0x40 MLOAD PUSH3 0x461BCD PUSH1 0xE5 SHL DUP2 MSTORE PUSH1 0x20 PUSH1 0x4 DUP3 ADD MSTORE PUSH1 0x11 PUSH1 0x24 DUP3 ADD MSTORE PUSH17 0x8CCACA40E4C2E8CA40E8DEDE40D0D2CED PUSH1 0x7B SHL PUSH1 0x44 DUP3 ADD MSTORE PUSH1 0x64 ADD PUSH3 0x53 JUMP JUMPDEST PUSH1 0x6 DUP1 SLOAD PUSH1 0x1 PUSH1 0x1 PUSH1 0xA0 SHL SUB DUP1 DUP7 AND PUSH1 0x1 PUSH1 0x1 PUSH1 0xA0 SHL SUB NOT SWAP3 DUP4 AND OR SWAP1 SWAP3 SSTORE PUSH1 0x4 DUP1 SLOAD SWAP3 DUP6 AND SWAP3 SWAP1 SWAP2 AND SWAP2 SWAP1 SWAP2 OR SWAP1 SSTORE PUSH1 0x3 DUP2 SWAP1 SSTORE CALLER PUSH1 0x0 SWAP1 DUP2 MSTORE PUSH1 0xC PUSH1 0x20 SWAP1 DUP2 MSTORE PUSH1 0x40 SWAP2 DUP3 SWAP1 KECCAK256 DUP1 SLOAD PUSH1 0xFF NOT AND PUSH1 0x1 OR SWAP1 SSTORE DUP2 MLOAD DUP1 DUP4 ADD SWAP1 SWAP3 MSTORE PUSH1 0x2 DUP3 MSTORE PUSH2 0x4B45 PUSH1 0xF0 SHL SWAP1 DUP3 ADD MSTORE PUSH3 0x1D8 SWAP1 PUSH3 0x3A5 JUMP JUMPDEST PUSH1 0x40 DUP1 MLOAD DUP1 DUP3 ADD SWAP1 SWAP2 MSTORE PUSH1 0x2 DUP2 MSTORE PUSH2 0x4E47 PUSH1 0xF0 SHL PUSH1 0x20 DUP3 ADD MSTORE PUSH3 0x1FC SWAP1 PUSH3 0x3A5 JUMP JUMPDEST PUSH1 0x40 DUP1 MLOAD DUP1 DUP3 ADD SWAP1 SWAP2 MSTORE PUSH1 0x2 DUP2 MSTORE PUSH2 0x8E9 PUSH1 0xF3 SHL PUSH1 0x20 DUP3 ADD MSTORE PUSH3 0x220 SWAP1 PUSH3 0x3A5 JUMP JUMPDEST PUSH1 0x40 DUP1 MLOAD DUP1 DUP3 ADD SWAP1 SWAP2 MSTORE PUSH1 0x2 DUP2 MSTORE PUSH2 0x5547 PUSH1 0xF0 SHL PUSH1 0x20 DUP3 ADD MSTORE PUSH3 0x244 SWAP1 PUSH3 0x3A5 JUMP JUMPDEST PUSH1 0x40 DUP1 MLOAD DUP1 DUP3 ADD SWAP1 SWAP2 MSTORE PUSH1 0x2 DUP2 MSTORE PUSH2 0x2A2D PUSH1 0xF1 SHL PUSH1 0x20 DUP3 ADD MSTORE PUSH3 0x268 SWAP1 PUSH3 0x3A5 JUMP JUMPDEST PUSH1 0x40 DUP1 MLOAD DUP1 DUP3 ADD SWAP1 SWAP2 MSTORE PUSH1 0x2 DUP2 MSTORE PUSH2 0x5257 PUSH1 0xF0 SHL PUSH1 0x20 DUP3 ADD MSTORE PUSH3 0x28C SWAP1 PUSH3 0x3A5 JUMP JUMPDEST PUSH1 0x40 DUP1 MLOAD DUP1 DUP3 ADD SWAP1 SWAP2 MSTORE PUSH1 0x5 DUP2 MSTORE PUSH5 0x6D70657361 PUSH1 0xD8 SHL PUSH1 0x20 DUP3 ADD MSTORE PUSH3 0x2B3 SWAP1 PUSH3 0x469 JUMP JUMPDEST PUSH1 0x40 DUP1 MLOAD DUP1 DUP3 ADD SWAP1 SWAP2 MSTORE PUSH1 0x6 DUP2 MSTORE PUSH6 0x185A5C9D195B PUSH1 0xD2 SHL PUSH1 0x20 DUP3 ADD MSTORE PUSH3 0x2DB SWAP1 PUSH3 0x469 JUMP JUMPDEST PUSH1 0x40 DUP1 MLOAD DUP1 DUP3 ADD SWAP1 SWAP2 MSTORE PUSH1 0x4 DUP2 MSTORE PUSH4 0x6F706179 PUSH1 0xE0 SHL PUSH1 0x20 DUP3 ADD MSTORE PUSH3 0x301 SWAP1 PUSH3 0x469 JUMP JUMPDEST PUSH1 0x40 DUP1 MLOAD DUP1 DUP3 ADD SWAP1 SWAP2 MSTORE PUSH1 0x4 DUP2 MSTORE PUSH4 0x6B756461 PUSH1 0xE0 SHL PUSH1 0x20 DUP3 ADD MSTORE PUSH3 0x327 SWAP1 PUSH3 0x469 JUMP JUMPDEST PUSH1 0x40 DUP1 MLOAD DUP1 DUP3 ADD SWAP1 SWAP2 MSTORE PUSH1 0x3 DUP2 MSTORE PUSH3 0x36BA37 PUSH1 0xE9 SHL PUSH1 0x20 DUP3 ADD MSTORE PUSH3 0x34C SWAP1 PUSH3 0x469 JUMP JUMPDEST POP POP POP PUSH3 0x601 JUMP JUMPDEST PUSH1 0x0 DUP1 SLOAD PUSH1 0x1 PUSH1 0x1 PUSH1 0xA0 SHL SUB DUP4 DUP2 AND PUSH1 0x1 PUSH1 0x1 PUSH1 0xA0 SHL SUB NOT DUP4 AND DUP2 OR DUP5 SSTORE PUSH1 0x40 MLOAD SWAP2 SWAP1 SWAP3 AND SWAP3 DUP4 SWAP2 PUSH32 0x8BE0079C531659141344CD1FD0A4F28419497F9722A3DAAFE3B4186F6B6457E0 SWAP2 SWAP1 LOG3 POP POP JUMP JUMPDEST DUP1 MLOAD PUSH1 0x2 EQ PUSH3 0x3F8 JUMPI PUSH1 0x40 MLOAD PUSH3 0x461BCD PUSH1 0xE5 SHL DUP2 MSTORE PUSH1 0x20 PUSH1 0x4 DUP3 ADD MSTORE PUSH1 0x14 PUSH1 0x24 DUP3 ADD MSTORE PUSH32 0x496E76616C696420636F756E74727920636F6465000000000000000000000000 PUSH1 0x44 DUP3 ADD MSTORE PUSH1 0x64 ADD PUSH3 0x53 JUMP JUMPDEST PUSH1 0x1 PUSH1 0x8 DUP3 PUSH1 0x40 MLOAD PUSH3 0x40C SWAP2 SWAP1 PUSH3 0x5A6 JUMP JUMPDEST SWAP1 DUP2 MSTORE PUSH1 0x40 MLOAD SWAP1 DUP2 SWAP1 SUB PUSH1 0x20 ADD DUP2 KECCAK256 DUP1 SLOAD SWAP3 ISZERO ISZERO PUSH1 0xFF NOT SWAP1 SWAP4 AND SWAP3 SWAP1 SWAP3 OR SWAP1 SWAP2 SSTORE PUSH32 0xF464DB501510E8BBED44605F63FE36D73807CB733CB64EAA262BB31227EED042 SWAP1 PUSH3 0x45E SWAP1 DUP4 SWAP1 TIMESTAMP SWAP1 PUSH3 0x5C4 JUMP JUMPDEST PUSH1 0x40 MLOAD DUP1 SWAP2 SUB SWAP1 LOG1 POP JUMP JUMPDEST PUSH1 0x0 DUP2 MLOAD GT PUSH3 0x4BC JUMPI PUSH1 0x40 MLOAD PUSH3 0x461BCD PUSH1 0xE5 SHL DUP2 MSTORE PUSH1 0x20 PUSH1 0x4 DUP3 ADD MSTORE PUSH1 0x15 PUSH1 0x24 DUP3 ADD MSTORE PUSH32 0x496E76616C69642070726F766964657220636F64650000000000000000000000 PUSH1 0x44 DUP3 ADD MSTORE PUSH1 0x64 ADD PUSH3 0x53 JUMP JUMPDEST PUSH1 0x1 PUSH1 0x7 DUP3 PUSH1 0x40 MLOAD PUSH3 0x4D0 SWAP2 SWAP1 PUSH3 0x5A6 JUMP JUMPDEST SWAP1 DUP2 MSTORE PUSH1 0x40 MLOAD SWAP1 DUP2 SWAP1 SUB PUSH1 0x20 ADD DUP2 KECCAK256 DUP1 SLOAD SWAP3 ISZERO ISZERO PUSH1 0xFF NOT SWAP1 SWAP4 AND SWAP3 SWAP1 SWAP3 OR SWAP1 SWAP2 SSTORE PUSH32 0xF083C4FB73C9E6DF4D08B4605C1A92C56D967D8FB66D96438B4E78349CF5A5A7 SWAP1 PUSH3 0x45E SWAP1 DUP4 SWAP1 TIMESTAMP SWAP1 PUSH3 0x5C4 JUMP JUMPDEST DUP1 MLOAD PUSH1 0x1 PUSH1 0x1 PUSH1 0xA0 SHL SUB DUP2 AND DUP2 EQ PUSH3 0x53A JUMPI PUSH1 0x0 DUP1 REVERT JUMPDEST SWAP2 SWAP1 POP JUMP JUMPDEST PUSH1 0x0 DUP1 PUSH1 0x0 PUSH1 0x60 DUP5 DUP7 SUB SLT ISZERO PUSH3 0x555 JUMPI PUSH1 0x0 DUP1 REVERT JUMPDEST PUSH3 0x560 DUP5 PUSH3 0x522 JUMP JUMPDEST SWAP3 POP PUSH3 0x570 PUSH1 0x20 DUP6 ADD PUSH3 0x522 JUMP JUMPDEST SWAP2 POP PUSH1 0x40 DUP5 ADD MLOAD SWAP1 POP SWAP3 POP SWAP3 POP SWAP3 JUMP JUMPDEST PUSH1 0x0 JUMPDEST DUP4 DUP2 LT ISZERO PUSH3 0x59D JUMPI DUP2 DUP2 ADD MLOAD DUP4 DUP3 ADD MSTORE PUSH1 0x20 ADD PUSH3 0x583 JUMP JUMPDEST POP POP PUSH1 0x0 SWAP2 ADD MSTORE JUMP JUMPDEST PUSH1 0x0 DUP3 MLOAD PUSH3 0x5BA DUP2 DUP5 PUSH1 0x20 DUP8 ADD PUSH3 0x580 JUMP JUMPDEST SWAP2 SWAP1 SWAP2 ADD SWAP3 SWAP2 POP POP JUMP JUMPDEST PUSH1 0x40 DUP2 MSTORE PUSH1 0x0 DUP4 MLOAD DUP1 PUSH1 0x40 DUP5 ADD MSTORE PUSH3 0x5E5 DUP2 PUSH1 0x60 DUP6 ADD PUSH1 0x20 DUP9 ADD PUSH3 0x580 JUMP JUMPDEST PUSH1 0x20 DUP4 ADD SWAP4 SWAP1 SWAP4 MSTORE POP PUSH1 0x1F SWAP2 SWAP1 SWAP2 ADD PUSH1 0x1F NOT AND ADD PUSH1 0x60 ADD SWAP2 SWAP1 POP JUMP JUMPDEST PUSH2 0x264F DUP1 PUSH3 0x611 PUSH1 0x0 CODECOPY PUSH1 0x0 RETURN INVALID PUSH1 0x80 PUSH1 0x40 MSTORE PUSH1 0x4 CALLDATASIZE LT PUSH2 0x23F JUMPI PUSH1 0x0 CALLDATALOAD PUSH1 0xE0 SHR DUP1 PUSH4 0x9291CCD5 GT PUSH2 0x12E JUMPI DUP1 PUSH4 0xC415B95C GT PUSH2 0xAB JUMPI DUP1 PUSH4 0xE1F1C4A7 GT PUSH2 0x6F JUMPI DUP1 PUSH4 0xE1F1C4A7 EQ PUSH2 0x762 JUMPI DUP1 PUSH4 0xEECA08F0 EQ PUSH2 0x778 JUMPI DUP1 PUSH4 0xF2FDE38B EQ PUSH2 0x78E JUMPI DUP1 PUSH4 0xF8B2CB4F EQ PUSH2 0x7AE JUMPI DUP1 PUSH4 0xFA76DCF2 EQ PUSH2 0x7CE JUMPI PUSH2 0x246 JUMP JUMPDEST DUP1 PUSH4 0xC415B95C EQ PUSH2 0x6AB JUMPI DUP1 PUSH4 0xC59D4847 EQ PUSH2 0x6CB JUMPI DUP1 PUSH4 0xC87E4359 EQ PUSH2 0x702 JUMPI DUP1 PUSH4 0xDBE3FE1D EQ PUSH2 0x722 JUMPI DUP1 PUSH4 0xDFBF509B EQ PUSH2 0x742 JUMPI PUSH2 0x246 JUMP JUMPDEST DUP1 PUSH4 0xAC2E4936 GT PUSH2 0xF2 JUMPI DUP1 PUSH4 0xAC2E4936 EQ PUSH2 0x605 JUMPI DUP1 PUSH4 0xAC8A584A EQ PUSH2 0x635 JUMPI DUP1 PUSH4 0xAFFF7966 EQ PUSH2 0x655 JUMPI DUP1 PUSH4 0xB9A60038 EQ PUSH2 0x675 JUMPI DUP1 PUSH4 0xC011C9EB EQ PUSH2 0x68B JUMPI PUSH2 0x246 JUMP JUMPDEST DUP1 PUSH4 0x9291CCD5 EQ PUSH2 0x563 JUMPI DUP1 PUSH4 0x92F6576E EQ PUSH2 0x579 JUMPI DUP1 PUSH4 0x9870D7FE EQ PUSH2 0x58F JUMPI DUP1 PUSH4 0x9DCB511A EQ PUSH2 0x5AF JUMPI DUP1 PUSH4 0xA42DCE80 EQ PUSH2 0x5E5 JUMPI PUSH2 0x246 JUMP JUMPDEST DUP1 PUSH4 0x5C975ABB GT PUSH2 0x1BC JUMPI DUP1 PUSH4 0x819D938F GT PUSH2 0x180 JUMPI DUP1 PUSH4 0x819D938F EQ PUSH2 0x4D0 JUMPI DUP1 PUSH4 0x82D52C1E EQ PUSH2 0x4F0 JUMPI DUP1 PUSH4 0x8456CB59 EQ PUSH2 0x510 JUMPI DUP1 PUSH4 0x8DA5CB5B EQ PUSH2 0x525 JUMPI DUP1 PUSH4 0x927FEF2E EQ PUSH2 0x543 JUMPI PUSH2 0x246 JUMP JUMPDEST DUP1 PUSH4 0x5C975ABB EQ PUSH2 0x435 JUMPI DUP1 PUSH4 0x715018A6 EQ PUSH2 0x44D JUMPI DUP1 PUSH4 0x72FCFAF7 EQ PUSH2 0x462 JUMPI DUP1 PUSH4 0x734C5F3D EQ PUSH2 0x49D JUMPI DUP1 PUSH4 0x76E11286 EQ PUSH2 0x4B0 JUMPI PUSH2 0x246 JUMP JUMPDEST DUP1 PUSH4 0x3F4BA83A GT PUSH2 0x203 JUMPI DUP1 PUSH4 0x3F4BA83A EQ PUSH2 0x36D JUMPI DUP1 PUSH4 0x42F6FB29 EQ PUSH2 0x382 JUMPI DUP1 PUSH4 0x4A54870A EQ PUSH2 0x3BA JUMPI DUP1 PUSH4 0x551512DE EQ PUSH2 0x3F5 JUMPI DUP1 PUSH4 0x5806669F EQ PUSH2 0x415 JUMPI PUSH2 0x246 JUMP JUMPDEST DUP1 PUSH4 0x63250D8 EQ PUSH2 0x288 JUMPI DUP1 PUSH4 0x106B2192 EQ PUSH2 0x2BD JUMPI DUP1 PUSH4 0x16345F18 EQ PUSH2 0x2DF JUMPI DUP1 PUSH4 0x181D989B EQ PUSH2 0x314 JUMPI DUP1 PUSH4 0x3C3DBBC7 EQ PUSH2 0x344 JUMPI PUSH2 0x246 JUMP JUMPDEST CALLDATASIZE PUSH2 0x246 JUMPI STOP JUMPDEST PUSH1 0x40 MLOAD PUSH3 0x461BCD PUSH1 0xE5 SHL DUP2 MSTORE PUSH1 0x20 PUSH1 0x4 DUP3 ADD MSTORE PUSH1 0x12 PUSH1 0x24 DUP3 ADD MSTORE PUSH18 0x119D5B98DD1A5BDB881B9BDD08199BDD5B99 PUSH1 0x72 SHL PUSH1 0x44 DUP3 ADD MSTORE PUSH1 0x64 ADD JUMPDEST PUSH1 0x40 MLOAD DUP1 SWAP2 SUB SWAP1 REVERT JUMPDEST CALLVALUE DUP1 ISZERO PUSH2 0x294 JUMPI PUSH1 0x0 DUP1 REVERT JUMPDEST POP PUSH2 0x2A8 PUSH2 0x2A3 CALLDATASIZE PUSH1 0x4 PUSH2 0x1FF7 JUMP JUMPDEST PUSH2 0x7EE JUMP JUMPDEST PUSH1 0x40 MLOAD SWAP1 ISZERO ISZERO DUP2 MSTORE PUSH1 0x20 ADD JUMPDEST PUSH1 0x40 MLOAD DUP1 SWAP2 SUB SWAP1 RETURN JUMPDEST CALLVALUE DUP1 ISZERO PUSH2 0x2C9 JUMPI PUSH1 0x0 DUP1 REVERT JUMPDEST POP PUSH2 0x2DD PUSH2 0x2D8 CALLDATASIZE PUSH1 0x4 PUSH2 0x1FF7 JUMP JUMPDEST PUSH2 0x819 JUMP JUMPDEST STOP JUMPDEST CALLVALUE DUP1 ISZERO PUSH2 0x2EB JUMPI PUSH1 0x0 DUP1 REVERT JUMPDEST POP PUSH2 0x2FF PUSH2 0x2FA CALLDATASIZE PUSH1 0x4 PUSH2 0x204B JUMP JUMPDEST PUSH2 0x88E JUMP JUMPDEST PUSH1 0x40 DUP1 MLOAD SWAP3 DUP4 MSTORE PUSH1 0x20 DUP4 ADD SWAP2 SWAP1 SWAP2 MSTORE ADD PUSH2 0x2B4 JUMP JUMPDEST CALLVALUE DUP1 ISZERO PUSH2 0x320 JUMPI PUSH1 0x0 DUP1 REVERT JUMPDEST POP PUSH2 0x2A8 PUSH2 0x32F CALLDATASIZE PUSH1 0x4 PUSH2 0x204B JUMP JUMPDEST PUSH1 0xC PUSH1 0x20 MSTORE PUSH1 0x0 SWAP1 DUP2 MSTORE PUSH1 0x40 SWAP1 KECCAK256 SLOAD PUSH1 0xFF AND DUP2 JUMP JUMPDEST CALLVALUE DUP1 ISZERO PUSH2 0x350 JUMPI PUSH1 0x0 DUP1 REVERT JUMPDEST POP PUSH2 0x35F PUSH7 0x38D7EA4C68000 DUP2 JUMP JUMPDEST PUSH1 0x40 MLOAD SWAP1 DUP2 MSTORE PUSH1 0x20 ADD PUSH2 0x2B4 JUMP JUMPDEST CALLVALUE DUP1 ISZERO PUSH2 0x379 JUMPI PUSH1 0x0 DUP1 REVERT JUMPDEST POP PUSH2 0x2DD PUSH2 0x993 JUMP JUMPDEST CALLVALUE DUP1 ISZERO PUSH2 0x38E JUMPI PUSH1 0x0 DUP1 REVERT JUMPDEST POP PUSH1 0x6 SLOAD PUSH2 0x3A2 SWAP1 PUSH1 0x1 PUSH1 0x1 PUSH1 0xA0 SHL SUB AND DUP2 JUMP JUMPDEST PUSH1 0x40 MLOAD PUSH1 0x1 PUSH1 0x1 PUSH1 0xA0 SHL SUB SWAP1 SWAP2 AND DUP2 MSTORE PUSH1 0x20 ADD PUSH2 0x2B4 JUMP JUMPDEST CALLVALUE DUP1 ISZERO PUSH2 0x3C6 JUMPI PUSH1 0x0 DUP1 REVERT JUMPDEST POP PUSH2 0x2A8 PUSH2 0x3D5 CALLDATASIZE PUSH1 0x4 PUSH2 0x1FF7 JUMP JUMPDEST DUP1 MLOAD PUSH1 0x20 DUP2 DUP4 ADD DUP2 ADD DUP1 MLOAD PUSH1 0x8 DUP3 MSTORE SWAP3 DUP3 ADD SWAP2 SWAP1 SWAP4 ADD KECCAK256 SWAP2 MSTORE SLOAD PUSH1 0xFF AND DUP2 JUMP JUMPDEST CALLVALUE DUP1 ISZERO PUSH2 0x401 JUMPI PUSH1 0x0 DUP1 REVERT JUMPDEST POP PUSH2 0x2DD PUSH2 0x410 CALLDATASIZE PUSH1 0x4 PUSH2 0x2066 JUMP JUMPDEST PUSH2 0x9A5 JUMP JUMPDEST CALLVALUE DUP1 ISZERO PUSH2 0x421 JUMPI PUSH1 0x0 DUP1 REVERT JUMPDEST POP PUSH2 0x2DD PUSH2 0x430 CALLDATASIZE PUSH1 0x4 PUSH2 0x1FF7 JUMP JUMPDEST PUSH2 0xB5D JUMP JUMPDEST CALLVALUE DUP1 ISZERO PUSH2 0x441 JUMPI PUSH1 0x0 DUP1 REVERT JUMPDEST POP PUSH1 0x2 SLOAD PUSH1 0xFF AND PUSH2 0x2A8 JUMP JUMPDEST CALLVALUE DUP1 ISZERO PUSH2 0x459 JUMPI PUSH1 0x0 DUP1 REVERT JUMPDEST POP PUSH2 0x2DD PUSH2 0xBC7 JUMP JUMPDEST CALLVALUE DUP1 ISZERO PUSH2 0x46E JUMPI PUSH1 0x0 DUP1 REVERT JUMPDEST POP PUSH2 0x2A8 PUSH2 0x47D CALLDATASIZE PUSH1 0x4 PUSH2 0x1FF7 JUMP JUMPDEST DUP1 MLOAD PUSH1 0x20 DUP2 DUP4 ADD DUP2 ADD DUP1 MLOAD PUSH1 0x7 DUP3 MSTORE SWAP3 DUP3 ADD SWAP2 SWAP1 SWAP4 ADD KECCAK256 SWAP2 MSTORE SLOAD PUSH1 0xFF AND DUP2 JUMP JUMPDEST PUSH2 0x35F PUSH2 0x4AB CALLDATASIZE PUSH1 0x4 PUSH2 0x20A2 JUMP JUMPDEST PUSH2 0xBD9 JUMP JUMPDEST CALLVALUE DUP1 ISZERO PUSH2 0x4BC JUMPI PUSH1 0x0 DUP1 REVERT JUMPDEST POP PUSH2 0x2DD PUSH2 0x4CB CALLDATASIZE PUSH1 0x4 PUSH2 0x2145 JUMP JUMPDEST PUSH2 0x1073 JUMP JUMPDEST CALLVALUE DUP1 ISZERO PUSH2 0x4DC JUMPI PUSH1 0x0 DUP1 REVERT JUMPDEST POP PUSH2 0x2DD PUSH2 0x4EB CALLDATASIZE PUSH1 0x4 PUSH2 0x2178 JUMP JUMPDEST PUSH2 0x112B JUMP JUMPDEST CALLVALUE DUP1 ISZERO PUSH2 0x4FC JUMPI PUSH1 0x0 DUP1 REVERT JUMPDEST POP PUSH2 0x2A8 PUSH2 0x50B CALLDATASIZE PUSH1 0x4 PUSH2 0x204B JUMP JUMPDEST PUSH2 0x122A JUMP JUMPDEST CALLVALUE DUP1 ISZERO PUSH2 0x51C JUMPI PUSH1 0x0 DUP1 REVERT JUMPDEST POP PUSH2 0x2DD PUSH2 0x1264 JUMP JUMPDEST CALLVALUE DUP1 ISZERO PUSH2 0x531 JUMPI PUSH1 0x0 DUP1 REVERT JUMPDEST POP PUSH1 0x0 SLOAD PUSH1 0x1 PUSH1 0x1 PUSH1 0xA0 SHL SUB AND PUSH2 0x3A2 JUMP JUMPDEST CALLVALUE DUP1 ISZERO PUSH2 0x54F JUMPI PUSH1 0x0 DUP1 REVERT JUMPDEST POP PUSH2 0x2DD PUSH2 0x55E CALLDATASIZE PUSH1 0x4 PUSH2 0x21BF JUMP JUMPDEST PUSH2 0x1274 JUMP JUMPDEST CALLVALUE DUP1 ISZERO PUSH2 0x56F JUMPI PUSH1 0x0 DUP1 REVERT JUMPDEST POP PUSH2 0x35F PUSH1 0xB SLOAD DUP2 JUMP JUMPDEST CALLVALUE DUP1 ISZERO PUSH2 0x585 JUMPI PUSH1 0x0 DUP1 REVERT JUMPDEST POP PUSH2 0x35F PUSH2 0x1F4 DUP2 JUMP JUMPDEST CALLVALUE DUP1 ISZERO PUSH2 0x59B JUMPI PUSH1 0x0 DUP1 REVERT JUMPDEST POP PUSH2 0x2DD PUSH2 0x5AA CALLDATASIZE PUSH1 0x4 PUSH2 0x204B JUMP JUMPDEST PUSH2 0x12C7 JUMP JUMPDEST CALLVALUE DUP1 ISZERO PUSH2 0x5BB JUMPI PUSH1 0x0 DUP1 REVERT JUMPDEST POP PUSH2 0x3A2 PUSH2 0x5CA CALLDATASIZE PUSH1 0x4 PUSH2 0x204B JUMP JUMPDEST PUSH1 0x5 PUSH1 0x20 MSTORE PUSH1 0x0 SWAP1 DUP2 MSTORE PUSH1 0x40 SWAP1 KECCAK256 SLOAD PUSH1 0x1 PUSH1 0x1 PUSH1 0xA0 SHL SUB AND DUP2 JUMP JUMPDEST CALLVALUE DUP1 ISZERO PUSH2 0x5F1 JUMPI PUSH1 0x0 DUP1 REVERT JUMPDEST POP PUSH2 0x2DD PUSH2 0x600 CALLDATASIZE PUSH1 0x4 PUSH2 0x204B JUMP JUMPDEST PUSH2 0x1378 JUMP JUMPDEST CALLVALUE DUP1 ISZERO PUSH2 0x611 JUMPI PUSH1 0x0 DUP1 REVERT JUMPDEST POP PUSH2 0x2A8 PUSH2 0x620 CALLDATASIZE PUSH1 0x4 PUSH2 0x21BF JUMP JUMPDEST PUSH1 0x9 PUSH1 0x20 MSTORE PUSH1 0x0 SWAP1 DUP2 MSTORE PUSH1 0x40 SWAP1 KECCAK256 SLOAD PUSH1 0xFF AND DUP2 JUMP JUMPDEST CALLVALUE DUP1 ISZERO PUSH2 0x641 JUMPI PUSH1 0x0 DUP1 REVERT JUMPDEST POP PUSH2 0x2DD PUSH2 0x650 CALLDATASIZE PUSH1 0x4 PUSH2 0x204B JUMP JUMPDEST PUSH2 0x13F0 JUMP JUMPDEST CALLVALUE DUP1 ISZERO PUSH2 0x661 JUMPI PUSH1 0x0 DUP1 REVERT JUMPDEST POP PUSH2 0x2DD PUSH2 0x670 CALLDATASIZE PUSH1 0x4 PUSH2 0x1FF7 JUMP JUMPDEST PUSH2 0x144A JUMP JUMPDEST CALLVALUE DUP1 ISZERO PUSH2 0x681 JUMPI PUSH1 0x0 DUP1 REVERT JUMPDEST POP PUSH2 0x35F PUSH1 0xA SLOAD DUP2 JUMP JUMPDEST CALLVALUE DUP1 ISZERO PUSH2 0x697 JUMPI PUSH1 0x0 DUP1 REVERT JUMPDEST POP PUSH2 0x2DD PUSH2 0x6A6 CALLDATASIZE PUSH1 0x4 PUSH2 0x204B JUMP JUMPDEST PUSH2 0x145E JUMP JUMPDEST CALLVALUE DUP1 ISZERO PUSH2 0x6B7 JUMPI PUSH1 0x0 DUP1 REVERT JUMPDEST POP PUSH1 0x4 SLOAD PUSH2 0x3A2 SWAP1 PUSH1 0x1 PUSH1 0x1 PUSH1 0xA0 SHL SUB AND DUP2 JUMP JUMPDEST CALLVALUE DUP1 ISZERO PUSH2 0x6D7 JUMPI PUSH1 0x0 DUP1 REVERT JUMPDEST POP PUSH2 0x6E0 PUSH2 0x1508 JUMP JUMPDEST PUSH1 0x40 DUP1 MLOAD SWAP5 DUP6 MSTORE PUSH1 0x20 DUP6 ADD SWAP4 SWAP1 SWAP4 MSTORE SWAP2 DUP4 ADD MSTORE ISZERO ISZERO PUSH1 0x60 DUP3 ADD MSTORE PUSH1 0x80 ADD PUSH2 0x2B4 JUMP JUMPDEST CALLVALUE DUP1 ISZERO PUSH2 0x70E JUMPI PUSH1 0x0 DUP1 REVERT JUMPDEST POP PUSH2 0x2DD PUSH2 0x71D CALLDATASIZE PUSH1 0x4 PUSH2 0x1FF7 JUMP JUMPDEST PUSH2 0x1531 JUMP JUMPDEST CALLVALUE DUP1 ISZERO PUSH2 0x72E JUMPI PUSH1 0x0 DUP1 REVERT JUMPDEST POP PUSH2 0x2DD PUSH2 0x73D CALLDATASIZE PUSH1 0x4 PUSH2 0x21D8 JUMP JUMPDEST PUSH2 0x1542 JUMP JUMPDEST CALLVALUE DUP1 ISZERO PUSH2 0x74E JUMPI PUSH1 0x0 DUP1 REVERT JUMPDEST POP PUSH2 0x2A8 PUSH2 0x75D CALLDATASIZE PUSH1 0x4 PUSH2 0x1FF7 JUMP JUMPDEST PUSH2 0x1685 JUMP JUMPDEST CALLVALUE DUP1 ISZERO PUSH2 0x76E JUMPI PUSH1 0x0 DUP1 REVERT JUMPDEST POP PUSH2 0x35F PUSH2 0x2710 DUP2 JUMP JUMPDEST CALLVALUE DUP1 ISZERO PUSH2 0x784 JUMPI PUSH1 0x0 DUP1 REVERT JUMPDEST POP PUSH2 0x35F PUSH1 0x3 SLOAD DUP2 JUMP JUMPDEST CALLVALUE DUP1 ISZERO PUSH2 0x79A JUMPI PUSH1 0x0 DUP1 REVERT JUMPDEST POP PUSH2 0x2DD PUSH2 0x7A9 CALLDATASIZE PUSH1 0x4 PUSH2 0x204B JUMP JUMPDEST PUSH2 0x1697 JUMP JUMPDEST CALLVALUE DUP1 ISZERO PUSH2 0x7BA JUMPI PUSH1 0x0 DUP1 REVERT JUMPDEST POP PUSH2 0x35F PUSH2 0x7C9 CALLDATASIZE PUSH1 0x4 PUSH2 0x204B JUMP JUMPDEST PUSH2 0x16D2 JUMP JUMPDEST CALLVALUE DUP1 ISZERO PUSH2 0x7DA JUMPI PUSH1 0x0 DUP1 REVERT JUMPDEST POP PUSH2 0x35F PUSH2 0x7E9 CALLDATASIZE PUSH1 0x4 PUSH2 0x2236 JUMP JUMPDEST PUSH2 0x1756 JUMP JUMPDEST PUSH1 0x0 PUSH1 0x8 DUP3 PUSH1 0x40 MLOAD PUSH2 0x800 SWAP2 SWAP1 PUSH2 0x2284 JUMP JUMPDEST SWAP1 DUP2 MSTORE PUSH1 0x40 MLOAD SWAP1 DUP2 SWAP1 SUB PUSH1 0x20 ADD SWAP1 KECCAK256 SLOAD PUSH1 0xFF AND SWAP3 SWAP2 POP POP JUMP JUMPDEST PUSH2 0x821 PUSH2 0x1769 JUMP JUMPDEST PUSH1 0x0 PUSH1 0x8 DUP3 PUSH1 0x40 MLOAD PUSH2 0x833 SWAP2 SWAP1 PUSH2 0x2284 JUMP JUMPDEST SWAP1 DUP2 MSTORE PUSH1 0x40 MLOAD SWAP1 DUP2 SWAP1 SUB PUSH1 0x20 ADD DUP2 KECCAK256 DUP1 SLOAD SWAP3 ISZERO ISZERO PUSH1 0xFF NOT SWAP1 SWAP4 AND SWAP3 SWAP1 SWAP3 OR SWAP1 SWAP2 SSTORE PUSH32 0x5D689B0E5BADBAB766B19BE0C0B89E98B1C3525DC9762F3169C7BE9FC1602EF4 SWAP1 PUSH2 0x883 SWAP1 DUP4 SWAP1 TIMESTAMP SWAP1 PUSH2 0x22CC JUMP JUMPDEST PUSH1 0x40 MLOAD DUP1 SWAP2 SUB SWAP1 LOG1 POP JUMP JUMPDEST PUSH1 0x0 DUP1 DUP1 PUSH1 0x1 PUSH1 0x1 PUSH1 0xA0 SHL SUB DUP5 AND ISZERO PUSH2 0x8C1 JUMPI PUSH1 0x1 PUSH1 0x1 PUSH1 0xA0 SHL SUB DUP1 DUP6 AND PUSH1 0x0 SWAP1 DUP2 MSTORE PUSH1 0x5 PUSH1 0x20 MSTORE PUSH1 0x40 SWAP1 KECCAK256 SLOAD AND PUSH2 0x8CE JUMP JUMPDEST PUSH1 0x6 SLOAD PUSH1 0x1 PUSH1 0x1 PUSH1 0xA0 SHL SUB AND JUMPDEST SWAP1 POP PUSH1 0x1 PUSH1 0x1 PUSH1 0xA0 SHL SUB DUP2 AND PUSH2 0x922 JUMPI PUSH1 0x40 MLOAD PUSH3 0x461BCD PUSH1 0xE5 SHL DUP2 MSTORE PUSH1 0x20 PUSH1 0x4 DUP3 ADD MSTORE PUSH1 0x19 PUSH1 0x24 DUP3 ADD MSTORE PUSH25 0x141C9A58D94819995959081B9BDD0818DBDB999A59DD5C9959 PUSH1 0x3A SHL PUSH1 0x44 DUP3 ADD MSTORE PUSH1 0x64 ADD PUSH2 0x27F JUMP JUMPDEST DUP1 PUSH1 0x1 PUSH1 0x1 PUSH1 0xA0 SHL SUB AND PUSH4 0xFEAF968C PUSH1 0x40 MLOAD DUP2 PUSH4 0xFFFFFFFF AND PUSH1 0xE0 SHL DUP2 MSTORE PUSH1 0x4 ADD PUSH1 0xA0 PUSH1 0x40 MLOAD DUP1 DUP4 SUB DUP2 DUP7 GAS STATICCALL ISZERO DUP1 ISZERO PUSH2 0x960 JUMPI RETURNDATASIZE PUSH1 0x0 DUP1 RETURNDATACOPY RETURNDATASIZE PUSH1 0x0 REVERT JUMPDEST POP POP POP POP PUSH1 0x40 MLOAD RETURNDATASIZE PUSH1 0x1F NOT PUSH1 0x1F DUP3 ADD AND DUP3 ADD DUP1 PUSH1 0x40 MSTORE POP DUP2 ADD SWAP1 PUSH2 0x984 SWAP2 SWAP1 PUSH2 0x2308 JUMP JUMPDEST POP SWAP2 SWAP8 SWAP2 SWAP7 POP SWAP1 SWAP5 POP POP POP POP POP JUMP JUMPDEST PUSH2 0x99B PUSH2 0x1769 JUMP JUMPDEST PUSH2 0x9A3 PUSH2 0x1796 JUMP JUMPDEST JUMP JUMPDEST PUSH2 0x9AD PUSH2 0x1769 JUMP JUMPDEST PUSH2 0x9B5 PUSH2 0x17E8 JUMP JUMPDEST PUSH1 0x1 PUSH1 0x1 PUSH1 0xA0 SHL SUB DUP2 AND PUSH2 0x9FF JUMPI PUSH1 0x40 MLOAD PUSH3 0x461BCD PUSH1 0xE5 SHL DUP2 MSTORE PUSH1 0x20 PUSH1 0x4 DUP3 ADD MSTORE PUSH1 0x11 PUSH1 0x24 DUP3 ADD MSTORE PUSH17 0x125B9D985B1A59081C9958DA5C1A595B9D PUSH1 0x7A SHL PUSH1 0x44 DUP3 ADD MSTORE PUSH1 0x64 ADD PUSH2 0x27F JUMP JUMPDEST PUSH1 0x1 PUSH1 0x1 PUSH1 0xA0 SHL SUB DUP4 AND PUSH2 0xAFC JUMPI DUP2 SELFBALANCE LT ISZERO PUSH2 0xA5D JUMPI PUSH1 0x40 MLOAD PUSH3 0x461BCD PUSH1 0xE5 SHL DUP2 MSTORE PUSH1 0x20 PUSH1 0x4 DUP3 ADD MSTORE PUSH1 0x18 PUSH1 0x24 DUP3 ADD MSTORE PUSH32 0x496E73756666696369656E74204554482062616C616E63650000000000000000 PUSH1 0x44 DUP3 ADD MSTORE PUSH1 0x64 ADD PUSH2 0x27F JUMP JUMPDEST PUSH1 0x0 DUP2 PUSH1 0x1 PUSH1 0x1 PUSH1 0xA0 SHL SUB AND DUP4 PUSH1 0x40 MLOAD PUSH1 0x0 PUSH1 0x40 MLOAD DUP1 DUP4 SUB DUP2 DUP6 DUP8 GAS CALL SWAP3 POP POP POP RETURNDATASIZE DUP1 PUSH1 0x0 DUP2 EQ PUSH2 0xAAA JUMPI PUSH1 0x40 MLOAD SWAP2 POP PUSH1 0x1F NOT PUSH1 0x3F RETURNDATASIZE ADD AND DUP3 ADD PUSH1 0x40 MSTORE RETURNDATASIZE DUP3 MSTORE RETURNDATASIZE PUSH1 0x0 PUSH1 0x20 DUP5 ADD RETURNDATACOPY PUSH2 0xAAF JUMP JUMPDEST PUSH1 0x60 SWAP2 POP JUMPDEST POP POP SWAP1 POP DUP1 PUSH2 0xAF6 JUMPI PUSH1 0x40 MLOAD PUSH3 0x461BCD PUSH1 0xE5 SHL DUP2 MSTORE PUSH1 0x20 PUSH1 0x4 DUP3 ADD MSTORE PUSH1 0x13 PUSH1 0x24 DUP3 ADD MSTORE PUSH19 0x115512081D1C985B9CD9995C8819985A5B1959 PUSH1 0x6A SHL PUSH1 0x44 DUP3 ADD MSTORE PUSH1 0x64 ADD PUSH2 0x27F JUMP JUMPDEST POP PUSH2 0xB10 JUMP JUMPDEST PUSH2 0xB10 PUSH1 0x1 PUSH1 0x1 PUSH1 0xA0 SHL SUB DUP5 AND DUP3 DUP5 PUSH2 0x180B JUMP JUMPDEST PUSH1 0x40 DUP1 MLOAD DUP4 DUP2 MSTORE TIMESTAMP PUSH1 0x20 DUP3 ADD MSTORE PUSH1 0x1 PUSH1 0x1 PUSH1 0xA0 SHL SUB DUP1 DUP5 AND SWAP3 SWAP1 DUP7 AND SWAP2 PUSH32 0xBBAE553982D541D38DACB1EA468AC757F324D0E279B6E4A2958F9E894DA575FF SWAP2 ADD PUSH1 0x40 MLOAD DUP1 SWAP2 SUB SWAP1 LOG3 POP POP POP JUMP JUMPDEST PUSH2 0xB65 PUSH2 0x1769 JUMP JUMPDEST PUSH1 0x0 PUSH1 0x7 DUP3 PUSH1 0x40 MLOAD PUSH2 0xB77 SWAP2 SWAP1 PUSH2 0x2284 JUMP JUMPDEST SWAP1 DUP2 MSTORE PUSH1 0x40 MLOAD SWAP1 DUP2 SWAP1 SUB PUSH1 0x20 ADD DUP2 KECCAK256 DUP1 SLOAD SWAP3 ISZERO ISZERO PUSH1 0xFF NOT SWAP1 SWAP4 AND SWAP3 SWAP1 SWAP3 OR SWAP1 SWAP2 SSTORE PUSH32 0x6F840862762AB2140262AFFE05855C4290D4C8C8AE62514860BE324C254D1FF1 SWAP1 PUSH2 0x883 SWAP1 DUP4 SWAP1 TIMESTAMP SWAP1 PUSH2 0x22CC JUMP JUMPDEST PUSH2 0xBCF PUSH2 0x1769 JUMP JUMPDEST PUSH2 0x9A3 PUSH1 0x0 PUSH2 0x186A JUMP JUMPDEST PUSH1 0x0 PUSH2 0xBE3 PUSH2 0x18BA JUMP JUMPDEST PUSH2 0xBEB PUSH2 0x18E4 JUMP JUMPDEST DUP6 DUP6 DUP6 DUP6 DUP6 PUSH7 0x38D7EA4C68000 DUP5 LT ISZERO PUSH2 0xC3E JUMPI PUSH1 0x40 MLOAD PUSH3 0x461BCD PUSH1 0xE5 SHL DUP2 MSTORE PUSH1 0x20 PUSH1 0x4 DUP3 ADD MSTORE PUSH1 0x14 PUSH1 0x24 DUP3 ADD MSTORE PUSH20 0x416D6F756E742062656C6F77206D696E696D756D PUSH1 0x60 SHL PUSH1 0x44 DUP3 ADD MSTORE PUSH1 0x64 ADD PUSH2 0x27F JUMP JUMPDEST PUSH1 0xA DUP4 MLOAD LT ISZERO PUSH2 0xC87 JUMPI PUSH1 0x40 MLOAD PUSH3 0x461BCD PUSH1 0xE5 SHL DUP2 MSTORE PUSH1 0x20 PUSH1 0x4 DUP3 ADD MSTORE PUSH1 0x14 PUSH1 0x24 DUP3 ADD MSTORE PUSH20 0x24B73B30B634B210383437B73290373AB6B132B9 PUSH1 0x61 SHL PUSH1 0x44 DUP3 ADD MSTORE PUSH1 0x64 ADD PUSH2 0x27F JUMP JUMPDEST PUSH1 0x8 DUP3 PUSH1 0x40 MLOAD PUSH2 0xC97 SWAP2 SWAP1 PUSH2 0x2284 JUMP JUMPDEST SWAP1 DUP2 MSTORE PUSH1 0x40 MLOAD SWAP1 DUP2 SWAP1 SUB PUSH1 0x20 ADD SWAP1 KECCAK256 SLOAD PUSH1 0xFF AND PUSH2 0xCEE JUMPI PUSH1 0x40 MLOAD PUSH3 0x461BCD PUSH1 0xE5 SHL DUP2 MSTORE PUSH1 0x20 PUSH1 0x4 DUP3 ADD MSTORE PUSH1 0x15 PUSH1 0x24 DUP3 ADD MSTORE PUSH21 0x10DBDD5B9D1C9E481B9BDD081CDD5C1C1BDC9D1959 PUSH1 0x5A SHL PUSH1 0x44 DUP3 ADD MSTORE PUSH1 0x64 ADD PUSH2 0x27F JUMP JUMPDEST PUSH1 0x7 DUP2 PUSH1 0x40 MLOAD PUSH2 0xCFE SWAP2 SWAP1 PUSH2 0x2284 JUMP JUMPDEST SWAP1 DUP2 MSTORE PUSH1 0x40 MLOAD SWAP1 DUP2 SWAP1 SUB PUSH1 0x20 ADD SWAP1 KECCAK256 SLOAD PUSH1 0xFF AND PUSH2 0xD56 JUMPI PUSH1 0x40 MLOAD PUSH3 0x461BCD PUSH1 0xE5 SHL DUP2 MSTORE PUSH1 0x20 PUSH1 0x4 DUP3 ADD MSTORE PUSH1 0x16 PUSH1 0x24 DUP3 ADD MSTORE PUSH22 0x141C9BDD9A59195C881B9BDD081CDD5C1C1BDC9D1959 PUSH1 0x52 SHL PUSH1 0x44 DUP3 ADD MSTORE PUSH1 0x64 ADD PUSH2 0x27F JUMP JUMPDEST PUSH1 0x1 PUSH1 0x1 PUSH1 0xA0 SHL SUB DUP6 AND PUSH2 0xDAE JUMPI DUP4 CALLVALUE EQ PUSH2 0xDA9 JUMPI PUSH1 0x40 MLOAD PUSH3 0x461BCD PUSH1 0xE5 SHL DUP2 MSTORE PUSH1 0x20 PUSH1 0x4 DUP3 ADD MSTORE PUSH1 0x13 PUSH1 0x24 DUP3 ADD MSTORE PUSH19 0x8AA89040C2DADEEADCE840DAD2E6DAC2E8C6D PUSH1 0x6B SHL PUSH1 0x44 DUP3 ADD MSTORE PUSH1 0x64 ADD PUSH2 0x27F JUMP JUMPDEST PUSH2 0xEB4 JUMP JUMPDEST CALLVALUE ISZERO PUSH2 0xDFC JUMPI PUSH1 0x40 MLOAD PUSH3 0x461BCD PUSH1 0xE5 SHL DUP2 MSTORE PUSH1 0x20 PUSH1 0x4 DUP3 ADD MSTORE PUSH1 0x1C PUSH1 0x24 DUP3 ADD MSTORE PUSH32 0x4554482073656E74207769746820746F6B656E207472616E7366657200000000 PUSH1 0x44 DUP3 ADD MSTORE PUSH1 0x64 ADD PUSH2 0x27F JUMP JUMPDEST PUSH1 0x40 MLOAD PUSH4 0x70A08231 PUSH1 0xE0 SHL DUP2 MSTORE CALLER PUSH1 0x4 DUP3 ADD MSTORE DUP5 SWAP1 PUSH1 0x1 PUSH1 0x1 PUSH1 0xA0 SHL SUB DUP8 AND SWAP1 PUSH4 0x70A08231 SWAP1 PUSH1 0x24 ADD PUSH1 0x20 PUSH1 0x40 MLOAD DUP1 DUP4 SUB DUP2 DUP7 GAS STATICCALL ISZERO DUP1 ISZERO PUSH2 0xE42 JUMPI RETURNDATASIZE PUSH1 0x0 DUP1 RETURNDATACOPY RETURNDATASIZE PUSH1 0x0 REVERT JUMPDEST POP POP POP POP PUSH1 0x40 MLOAD RETURNDATASIZE PUSH1 0x1F NOT PUSH1 0x1F DUP3 ADD AND DUP3 ADD DUP1 PUSH1 0x40 MSTORE POP DUP2 ADD SWAP1 PUSH2 0xE66 SWAP2 SWAP1 PUSH2 0x2358 JUMP JUMPDEST LT ISZERO PUSH2 0xEB4 JUMPI PUSH1 0x40 MLOAD PUSH3 0x461BCD PUSH1 0xE5 SHL DUP2 MSTORE PUSH1 0x20 PUSH1 0x4 DUP3 ADD MSTORE PUSH1 0x1A PUSH1 0x24 DUP3 ADD MSTORE PUSH32 0x496E73756666696369656E7420746F6B656E2062616C616E6365000000000000 PUSH1 0x44 DUP3 ADD MSTORE PUSH1 0x64 ADD PUSH2 0x27F JUMP JUMPDEST PUSH1 0xA SLOAD PUSH1 0x40 MLOAD PUSH2 0xED4 SWAP2 CALLER SWAP2 DUP15 SWAP2 DUP15 SWAP2 DUP15 SWAP2 DUP15 SWAP2 DUP15 SWAP2 TIMESTAMP SWAP2 PUSH1 0x20 ADD PUSH2 0x2371 JUMP JUMPDEST PUSH1 0x40 DUP1 MLOAD PUSH1 0x1F NOT DUP2 DUP5 SUB ADD DUP2 MSTORE SWAP2 DUP2 MSTORE DUP2 MLOAD PUSH1 0x20 SWAP3 DUP4 ADD KECCAK256 PUSH1 0x0 DUP2 DUP2 MSTORE PUSH1 0x9 SWAP1 SWAP4 MSTORE SWAP2 KECCAK256 SLOAD SWAP1 SWAP7 POP PUSH1 0xFF AND ISZERO PUSH2 0xF44 JUMPI PUSH1 0x40 MLOAD PUSH3 0x461BCD PUSH1 0xE5 SHL DUP2 MSTORE PUSH1 0x20 PUSH1 0x4 DUP3 ADD MSTORE PUSH1 0x15 PUSH1 0x24 DUP3 ADD MSTORE PUSH21 0x223AB83634B1B0BA32903A3930B739B0B1BA34B7B7 PUSH1 0x59 SHL PUSH1 0x44 DUP3 ADD MSTORE PUSH1 0x64 ADD PUSH2 0x27F JUMP JUMPDEST PUSH1 0x0 PUSH2 0xF50 DUP13 DUP13 PUSH2 0x1908 JUMP JUMPDEST SWAP1 POP PUSH1 0x0 DUP2 GT PUSH2 0xF9B JUMPI PUSH1 0x40 MLOAD PUSH3 0x461BCD PUSH1 0xE5 SHL DUP2 MSTORE PUSH1 0x20 PUSH1 0x4 DUP3 ADD MSTORE PUSH1 0x16 PUSH1 0x24 DUP3 ADD MSTORE PUSH22 0x24B73B30B634B2102AA9A21031B7B73B32B939B4B7B7 PUSH1 0x51 SHL PUSH1 0x44 DUP3 ADD MSTORE PUSH1 0x64 ADD PUSH2 0x27F JUMP JUMPDEST PUSH1 0x0 PUSH2 0xFA8 DUP14 DUP14 DUP11 PUSH2 0x1BA0 JUMP JUMPDEST PUSH1 0xA DUP1 SLOAD SWAP2 SWAP3 POP PUSH1 0x0 PUSH2 0xFBA DUP4 PUSH2 0x240E JUMP JUMPDEST SWAP2 SWAP1 POP SSTORE POP DUP2 PUSH1 0xB PUSH1 0x0 DUP3 DUP3 SLOAD PUSH2 0xFD1 SWAP2 SWAP1 PUSH2 0x2427 JUMP JUMPDEST SWAP3 POP POP DUP2 SWAP1 SSTORE POP PUSH1 0x1 PUSH1 0x9 PUSH1 0x0 DUP11 DUP2 MSTORE PUSH1 0x20 ADD SWAP1 DUP2 MSTORE PUSH1 0x20 ADD PUSH1 0x0 KECCAK256 PUSH1 0x0 PUSH2 0x100 EXP DUP2 SLOAD DUP2 PUSH1 0xFF MUL NOT AND SWAP1 DUP4 ISZERO ISZERO MUL OR SWAP1 SSTORE POP DUP13 PUSH1 0x1 PUSH1 0x1 PUSH1 0xA0 SHL SUB AND CALLER PUSH1 0x1 PUSH1 0x1 PUSH1 0xA0 SHL SUB AND DUP10 PUSH32 0xACF46FD934181961784E06D92E08AEBDFB9DD4E38CE3AF31C9FEAC1CCA034511 DUP5 DUP16 DUP16 DUP16 DUP10 TIMESTAMP PUSH1 0x40 MLOAD PUSH2 0x1052 SWAP7 SWAP6 SWAP5 SWAP4 SWAP3 SWAP2 SWAP1 PUSH2 0x243A JUMP JUMPDEST PUSH1 0x40 MLOAD DUP1 SWAP2 SUB SWAP1 LOG4 POP POP POP POP POP POP POP PUSH2 0x106A PUSH1 0x1 DUP1 SSTORE JUMP JUMPDEST SWAP6 SWAP5 POP POP POP POP POP JUMP JUMPDEST PUSH2 0x107B PUSH2 0x1769 JUMP JUMPDEST PUSH1 0x1 PUSH1 0x1 PUSH1 0xA0 SHL SUB DUP2 AND PUSH2 0x10C6 JUMPI PUSH1 0x40 MLOAD PUSH3 0x461BCD PUSH1 0xE5 SHL DUP2 MSTORE PUSH1 0x20 PUSH1 0x4 DUP3 ADD MSTORE PUSH1 0x12 PUSH1 0x24 DUP3 ADD MSTORE PUSH18 0x125B9D985B1A59081C1C9A58D94819995959 PUSH1 0x72 SHL PUSH1 0x44 DUP3 ADD MSTORE PUSH1 0x64 ADD PUSH2 0x27F JUMP JUMPDEST PUSH1 0x1 PUSH1 0x1 PUSH1 0xA0 SHL SUB DUP3 DUP2 AND PUSH1 0x0 DUP2 DUP2 MSTORE PUSH1 0x5 PUSH1 0x20 SWAP1 DUP2 MSTORE PUSH1 0x40 SWAP2 DUP3 SWAP1 KECCAK256 DUP1 SLOAD PUSH1 0x1 PUSH1 0x1 PUSH1 0xA0 SHL SUB NOT AND SWAP5 DUP7 AND SWAP5 DUP6 OR SWAP1 SSTORE SWAP1 MLOAD TIMESTAMP DUP2 MSTORE PUSH32 0x9133C44A288CF07C9E3C56B4D0CB5982200A180E0C9EA030485CA93950EF19BF SWAP2 ADD PUSH1 0x40 MLOAD DUP1 SWAP2 SUB SWAP1 LOG3 POP POP JUMP JUMPDEST CALLER PUSH1 0x0 SWAP1 DUP2 MSTORE PUSH1 0xC PUSH1 0x20 MSTORE PUSH1 0x40 SWAP1 KECCAK256 SLOAD PUSH1 0xFF AND DUP1 PUSH2 0x1153 JUMPI POP PUSH1 0x0 SLOAD PUSH1 0x1 PUSH1 0x1 PUSH1 0xA0 SHL SUB AND CALLER EQ JUMPDEST PUSH2 0x1199 JUMPI PUSH1 0x40 MLOAD PUSH3 0x461BCD PUSH1 0xE5 SHL DUP2 MSTORE PUSH1 0x20 PUSH1 0x4 DUP3 ADD MSTORE PUSH1 0x17 PUSH1 0x24 DUP3 ADD MSTORE PUSH23 0x2737BA1030BABA3437B934BD32B21037B832B930BA37B9 PUSH1 0x49 SHL PUSH1 0x44 DUP3 ADD MSTORE PUSH1 0x64 ADD PUSH2 0x27F JUMP JUMPDEST PUSH1 0x0 DUP3 DUP2 MSTORE PUSH1 0x9 PUSH1 0x20 MSTORE PUSH1 0x40 SWAP1 KECCAK256 SLOAD PUSH1 0xFF AND PUSH2 0x11EC JUMPI PUSH1 0x40 MLOAD PUSH3 0x461BCD PUSH1 0xE5 SHL DUP2 MSTORE PUSH1 0x20 PUSH1 0x4 DUP3 ADD MSTORE PUSH1 0x12 PUSH1 0x24 DUP3 ADD MSTORE PUSH18 0x125B9D985B1A59081C995C5D595CDD081251 PUSH1 0x72 SHL PUSH1 0x44 DUP3 ADD MSTORE PUSH1 0x64 ADD PUSH2 0x27F JUMP JUMPDEST DUP2 PUSH32 0xEB0989AB516A5D9116892D747DB45AACB7C7102C62F16C5BC2115E6E1ECC513B DUP3 TIMESTAMP PUSH1 0x40 MLOAD PUSH2 0x121E SWAP3 SWAP2 SWAP1 PUSH2 0x22CC JUMP JUMPDEST PUSH1 0x40 MLOAD DUP1 SWAP2 SUB SWAP1 LOG2 POP POP JUMP JUMPDEST PUSH1 0x1 PUSH1 0x1 PUSH1 0xA0 SHL SUB DUP2 AND PUSH1 0x0 SWAP1 DUP2 MSTORE PUSH1 0xC PUSH1 0x20 MSTORE PUSH1 0x40 DUP2 KECCAK256 SLOAD PUSH1 0xFF AND DUP1 PUSH2 0x125E JUMPI POP PUSH1 0x0 SLOAD PUSH1 0x1 PUSH1 0x1 PUSH1 0xA0 SHL SUB DUP4 DUP2 AND SWAP2 AND EQ JUMPDEST SWAP3 SWAP2 POP POP JUMP JUMPDEST PUSH2 0x126C PUSH2 0x1769 JUMP JUMPDEST PUSH2 0x9A3 PUSH2 0x1D12 JUMP JUMPDEST PUSH2 0x127C PUSH2 0x1769 JUMP JUMPDEST PUSH2 0x1F4 DUP2 GT ISZERO PUSH2 0x12C2 JUMPI PUSH1 0x40 MLOAD PUSH3 0x461BCD PUSH1 0xE5 SHL DUP2 MSTORE PUSH1 0x20 PUSH1 0x4 DUP3 ADD MSTORE PUSH1 0x11 PUSH1 0x24 DUP3 ADD MSTORE PUSH17 0x8CCACA40E4C2E8CA40E8DEDE40D0D2CED PUSH1 0x7B SHL PUSH1 0x44 DUP3 ADD MSTORE PUSH1 0x64 ADD PUSH2 0x27F JUMP JUMPDEST PUSH1 0x3 SSTORE JUMP JUMPDEST PUSH2 0x12CF PUSH2 0x1769 JUMP JUMPDEST PUSH1 0x1 PUSH1 0x1 PUSH1 0xA0 SHL SUB DUP2 AND PUSH2 0x1318 JUMPI PUSH1 0x40 MLOAD PUSH3 0x461BCD PUSH1 0xE5 SHL DUP2 MSTORE PUSH1 0x20 PUSH1 0x4 DUP3 ADD MSTORE PUSH1 0x10 PUSH1 0x24 DUP3 ADD MSTORE PUSH16 0x24B73B30B634B21037B832B930BA37B9 PUSH1 0x81 SHL PUSH1 0x44 DUP3 ADD MSTORE PUSH1 0x64 ADD PUSH2 0x27F JUMP JUMPDEST PUSH1 0x1 PUSH1 0x1 PUSH1 0xA0 SHL SUB DUP2 AND PUSH1 0x0 DUP2 DUP2 MSTORE PUSH1 0xC PUSH1 0x20 MSTORE PUSH1 0x40 SWAP1 DUP2 SWAP1 KECCAK256 DUP1 SLOAD PUSH1 0xFF NOT AND PUSH1 0x1 OR SWAP1 SSTORE MLOAD PUSH32 0xCBCB793495A5FD793DA61A1D62AB99B58925F94B0A61BEEEC3EA7D7D6C4F2594 SWAP1 PUSH2 0x136D SWAP1 TIMESTAMP DUP2 MSTORE PUSH1 0x20 ADD SWAP1 JUMP JUMPDEST PUSH1 0x40 MLOAD DUP1 SWAP2 SUB SWAP1 LOG2 POP JUMP JUMPDEST PUSH2 0x1380 PUSH2 0x1769 JUMP JUMPDEST PUSH1 0x1 PUSH1 0x1 PUSH1 0xA0 SHL SUB DUP2 AND PUSH2 0x13CE JUMPI PUSH1 0x40 MLOAD PUSH3 0x461BCD PUSH1 0xE5 SHL DUP2 MSTORE PUSH1 0x20 PUSH1 0x4 DUP3 ADD MSTORE PUSH1 0x15 PUSH1 0x24 DUP3 ADD MSTORE PUSH21 0x24B73B30B634B2103332B29031B7B63632B1BA37B9 PUSH1 0x59 SHL PUSH1 0x44 DUP3 ADD MSTORE PUSH1 0x64 ADD PUSH2 0x27F JUMP JUMPDEST PUSH1 0x4 DUP1 SLOAD PUSH1 0x1 PUSH1 0x1 PUSH1 0xA0 SHL SUB NOT AND PUSH1 0x1 PUSH1 0x1 PUSH1 0xA0 SHL SUB SWAP3 SWAP1 SWAP3 AND SWAP2 SWAP1 SWAP2 OR SWAP1 SSTORE JUMP JUMPDEST PUSH2 0x13F8 PUSH2 0x1769 JUMP JUMPDEST PUSH1 0x1 PUSH1 0x1 PUSH1 0xA0 SHL SUB DUP2 AND PUSH1 0x0 DUP2 DUP2 MSTORE PUSH1 0xC PUSH1 0x20 MSTORE PUSH1 0x40 SWAP1 DUP2 SWAP1 KECCAK256 DUP1 SLOAD PUSH1 0xFF NOT AND SWAP1 SSTORE MLOAD PUSH32 0x2360404A74478FEBECE1A14F11275F22ADA88D19EF96F7D785913010BFFF4479 SWAP1 PUSH2 0x136D SWAP1 TIMESTAMP DUP2 MSTORE PUSH1 0x20 ADD SWAP1 JUMP JUMPDEST PUSH2 0x1452 PUSH2 0x1769 JUMP JUMPDEST PUSH2 0x145B DUP2 PUSH2 0x1D4F JUMP JUMPDEST POP JUMP JUMPDEST PUSH2 0x1466 PUSH2 0x1769 JUMP JUMPDEST PUSH1 0x1 PUSH1 0x1 PUSH1 0xA0 SHL SUB DUP2 AND PUSH2 0x14B1 JUMPI PUSH1 0x40 MLOAD PUSH3 0x461BCD PUSH1 0xE5 SHL DUP2 MSTORE PUSH1 0x20 PUSH1 0x4 DUP3 ADD MSTORE PUSH1 0x12 PUSH1 0x24 DUP3 ADD MSTORE PUSH18 0x125B9D985B1A59081C1C9A58D94819995959 PUSH1 0x72 SHL PUSH1 0x44 DUP3 ADD MSTORE PUSH1 0x64 ADD PUSH2 0x27F JUMP JUMPDEST PUSH1 0x6 DUP1 SLOAD PUSH1 0x1 PUSH1 0x1 PUSH1 0xA0 SHL SUB NOT AND PUSH1 0x1 PUSH1 0x1 PUSH1 0xA0 SHL SUB DUP4 AND SWAP1 DUP2 OR SWAP1 SWAP2 SSTORE PUSH1 0x40 MLOAD TIMESTAMP DUP2 MSTORE PUSH1 0x0 SWAP1 PUSH32 0x9133C44A288CF07C9E3C56B4D0CB5982200A180E0C9EA030485CA93950EF19BF SWAP1 PUSH1 0x20 ADD PUSH1 0x40 MLOAD DUP1 SWAP2 SUB SWAP1 LOG3 POP JUMP JUMPDEST PUSH1 0x0 DUP1 PUSH1 0x0 DUP1 PUSH1 0xA SLOAD PUSH1 0xB SLOAD PUSH1 0x3 SLOAD PUSH2 0x1523 PUSH1 0x2 SLOAD PUSH1 0xFF AND SWAP1 JUMP JUMPDEST SWAP4 POP SWAP4 POP SWAP4 POP SWAP4 POP SWAP1 SWAP2 SWAP3 SWAP4 JUMP JUMPDEST PUSH2 0x1539 PUSH2 0x1769 JUMP JUMPDEST PUSH2 0x145B DUP2 PUSH2 0x1DFA JUMP JUMPDEST CALLER PUSH1 0x0 SWAP1 DUP2 MSTORE PUSH1 0xC PUSH1 0x20 MSTORE PUSH1 0x40 SWAP1 KECCAK256 SLOAD PUSH1 0xFF AND DUP1 PUSH2 0x156A JUMPI POP PUSH1 0x0 SLOAD PUSH1 0x1 PUSH1 0x1 PUSH1 0xA0 SHL SUB AND CALLER EQ JUMPDEST PUSH2 0x15B0 JUMPI PUSH1 0x40 MLOAD PUSH3 0x461BCD PUSH1 0xE5 SHL DUP2 MSTORE PUSH1 0x20 PUSH1 0x4 DUP3 ADD MSTORE PUSH1 0x17 PUSH1 0x24 DUP3 ADD MSTORE PUSH23 0x2737BA1030BABA3437B934BD32B21037B832B930BA37B9 PUSH1 0x49 SHL PUSH1 0x44 DUP3 ADD MSTORE PUSH1 0x64 ADD PUSH2 0x27F JUMP JUMPDEST PUSH1 0x0 DUP4 DUP2 MSTORE PUSH1 0x9 PUSH1 0x20 MSTORE PUSH1 0x40 SWAP1 KECCAK256 SLOAD PUSH1 0xFF AND PUSH2 0x1603 JUMPI PUSH1 0x40 MLOAD PUSH3 0x461BCD PUSH1 0xE5 SHL DUP2 MSTORE PUSH1 0x20 PUSH1 0x4 DUP3 ADD MSTORE PUSH1 0x12 PUSH1 0x24 DUP3 ADD MSTORE PUSH18 0x125B9D985B1A59081C995C5D595CDD081251 PUSH1 0x72 SHL PUSH1 0x44 DUP3 ADD MSTORE PUSH1 0x64 ADD PUSH2 0x27F JUMP JUMPDEST DUP2 ISZERO PUSH2 0x164B JUMPI DUP3 PUSH32 0x36796C4B92B8C2B6A7CFE50B2DE3D8D99CFA99A3956394F9002FD6A9ABDF2E05 PUSH1 0x1 DUP4 TIMESTAMP PUSH1 0x40 MLOAD PUSH2 0x163E SWAP4 SWAP3 SWAP2 SWAP1 PUSH2 0x248F JUMP JUMPDEST PUSH1 0x40 MLOAD DUP1 SWAP2 SUB SWAP1 LOG2 POP POP POP JUMP JUMPDEST DUP3 PUSH32 0x36796C4B92B8C2B6A7CFE50B2DE3D8D99CFA99A3956394F9002FD6A9ABDF2E05 PUSH1 0x0 DUP4 TIMESTAMP PUSH1 0x40 MLOAD PUSH2 0x163E SWAP4 SWAP3 SWAP2 SWAP1 PUSH2 0x248F JUMP JUMPDEST POP POP POP JUMP JUMPDEST PUSH1 0x0 PUSH1 0x7 DUP3 PUSH1 0x40 MLOAD PUSH2 0x800 SWAP2 SWAP1 PUSH2 0x2284 JUMP JUMPDEST PUSH2 0x169F PUSH2 0x1769 JUMP JUMPDEST PUSH1 0x1 PUSH1 0x1 PUSH1 0xA0 SHL SUB DUP2 AND PUSH2 0x16C9 JUMPI PUSH1 0x40 MLOAD PUSH4 0x1E4FBDF7 PUSH1 0xE0 SHL DUP2 MSTORE PUSH1 0x0 PUSH1 0x4 DUP3 ADD MSTORE PUSH1 0x24 ADD PUSH2 0x27F JUMP JUMPDEST PUSH2 0x145B DUP2 PUSH2 0x186A JUMP JUMPDEST PUSH1 0x0 PUSH1 0x1 PUSH1 0x1 PUSH1 0xA0 SHL SUB DUP3 AND PUSH2 0x16E9 JUMPI POP SELFBALANCE SWAP2 SWAP1 POP JUMP JUMPDEST PUSH1 0x40 MLOAD PUSH4 0x70A08231 PUSH1 0xE0 SHL DUP2 MSTORE ADDRESS PUSH1 0x4 DUP3 ADD MSTORE PUSH1 0x1 PUSH1 0x1 PUSH1 0xA0 SHL SUB DUP4 AND SWAP1 PUSH4 0x70A08231 SWAP1 PUSH1 0x24 ADD PUSH1 0x20 PUSH1 0x40 MLOAD DUP1 DUP4 SUB DUP2 DUP7 GAS STATICCALL ISZERO DUP1 ISZERO PUSH2 0x172D JUMPI RETURNDATASIZE PUSH1 0x0 DUP1 RETURNDATACOPY RETURNDATASIZE PUSH1 0x0 REVERT JUMPDEST POP POP POP POP PUSH1 0x40 MLOAD RETURNDATASIZE PUSH1 0x1F NOT PUSH1 0x1F DUP3 ADD AND DUP3 ADD DUP1 PUSH1 0x40 MSTORE POP DUP2 ADD SWAP1 PUSH2 0x125E SWAP2 SWAP1 PUSH2 0x2358 JUMP JUMPDEST SWAP2 SWAP1 POP JUMP JUMPDEST PUSH1 0x0 PUSH2 0x1762 DUP4 DUP4 PUSH2 0x1908 JUMP JUMPDEST SWAP4 SWAP3 POP POP POP JUMP JUMPDEST PUSH1 0x0 SLOAD PUSH1 0x1 PUSH1 0x1 PUSH1 0xA0 SHL SUB AND CALLER EQ PUSH2 0x9A3 JUMPI PUSH1 0x40 MLOAD PUSH4 0x118CDAA7 PUSH1 0xE0 SHL DUP2 MSTORE CALLER PUSH1 0x4 DUP3 ADD MSTORE PUSH1 0x24 ADD PUSH2 0x27F JUMP JUMPDEST PUSH2 0x179E PUSH2 0x17E8 JUMP JUMPDEST PUSH1 0x2 DUP1 SLOAD PUSH1 0xFF NOT AND SWAP1 SSTORE PUSH32 0x5DB9EE0A495BF2E6FF9C91A7834C1BA4FDD244A5E8AA4E537BD38AEAE4B073AA CALLER JUMPDEST PUSH1 0x40 MLOAD PUSH1 0x1 PUSH1 0x1 PUSH1 0xA0 SHL SUB SWAP1 SWAP2 AND DUP2 MSTORE PUSH1 0x20 ADD PUSH1 0x40 MLOAD DUP1 SWAP2 SUB SWAP1 LOG1 JUMP JUMPDEST PUSH1 0x2 SLOAD PUSH1 0xFF AND PUSH2 0x9A3 JUMPI PUSH1 0x40 MLOAD PUSH4 0x8DFC202B PUSH1 0xE0 SHL DUP2 MSTORE PUSH1 0x4 ADD PUSH1 0x40 MLOAD DUP1 SWAP2 SUB SWAP1 REVERT JUMPDEST PUSH1 0x40 MLOAD PUSH1 0x1 PUSH1 0x1 PUSH1 0xA0 SHL SUB DUP4 DUP2 AND PUSH1 0x24 DUP4 ADD MSTORE PUSH1 0x44 DUP3 ADD DUP4 SWAP1 MSTORE PUSH2 0x1680 SWAP2 DUP6 SWAP2 DUP3 AND SWAP1 PUSH4 0xA9059CBB SWAP1 PUSH1 0x64 ADD JUMPDEST PUSH1 0x40 MLOAD PUSH1 0x20 DUP2 DUP4 SUB SUB DUP2 MSTORE SWAP1 PUSH1 0x40 MSTORE SWAP2 POP PUSH1 0xE0 SHL PUSH1 0x20 DUP3 ADD DUP1 MLOAD PUSH1 0x1 PUSH1 0x1 PUSH1 0xE0 SHL SUB DUP4 DUP2 DUP4 AND OR DUP4 MSTORE POP POP POP POP PUSH2 0x1EA4 JUMP JUMPDEST PUSH1 0x0 DUP1 SLOAD PUSH1 0x1 PUSH1 0x1 PUSH1 0xA0 SHL SUB DUP4 DUP2 AND PUSH1 0x1 PUSH1 0x1 PUSH1 0xA0 SHL SUB NOT DUP4 AND DUP2 OR DUP5 SSTORE PUSH1 0x40 MLOAD SWAP2 SWAP1 SWAP3 AND SWAP3 DUP4 SWAP2 PUSH32 0x8BE0079C531659141344CD1FD0A4F28419497F9722A3DAAFE3B4186F6B6457E0 SWAP2 SWAP1 LOG3 POP POP JUMP JUMPDEST PUSH1 0x2 PUSH1 0x1 SLOAD SUB PUSH2 0x18DD JUMPI PUSH1 0x40 MLOAD PUSH4 0x3EE5AEB5 PUSH1 0xE0 SHL DUP2 MSTORE PUSH1 0x4 ADD PUSH1 0x40 MLOAD DUP1 SWAP2 SUB SWAP1 REVERT JUMPDEST PUSH1 0x2 PUSH1 0x1 SSTORE JUMP JUMPDEST PUSH1 0x2 SLOAD PUSH1 0xFF AND ISZERO PUSH2 0x9A3 JUMPI PUSH1 0x40 MLOAD PUSH4 0xD93C0665 PUSH1 0xE0 SHL DUP2 MSTORE PUSH1 0x4 ADD PUSH1 0x40 MLOAD DUP1 SWAP2 SUB SWAP1 REVERT JUMPDEST PUSH1 0x0 DUP1 PUSH1 0x1 PUSH1 0x1 PUSH1 0xA0 SHL SUB DUP5 AND PUSH2 0x192B JUMPI POP PUSH1 0x6 SLOAD PUSH1 0x1 PUSH1 0x1 PUSH1 0xA0 SHL SUB AND PUSH2 0x1990 JUMP JUMPDEST POP PUSH1 0x1 PUSH1 0x1 PUSH1 0xA0 SHL SUB DUP1 DUP5 AND PUSH1 0x0 SWAP1 DUP2 MSTORE PUSH1 0x5 PUSH1 0x20 MSTORE PUSH1 0x40 SWAP1 KECCAK256 SLOAD AND DUP1 PUSH2 0x1990 JUMPI PUSH1 0x40 MLOAD PUSH3 0x461BCD PUSH1 0xE5 SHL DUP2 MSTORE PUSH1 0x20 PUSH1 0x4 DUP3 ADD MSTORE PUSH1 0x19 PUSH1 0x24 DUP3 ADD MSTORE PUSH25 0x141C9A58D94819995959081B9BDD0818DBDB999A59DD5C9959 PUSH1 0x3A SHL PUSH1 0x44 DUP3 ADD MSTORE PUSH1 0x64 ADD PUSH2 0x27F JUMP JUMPDEST PUSH1 0x0 DUP1 DUP3 PUSH1 0x1 PUSH1 0x1 PUSH1 0xA0 SHL SUB AND PUSH4 0xFEAF968C PUSH1 0x40 MLOAD DUP2 PUSH4 0xFFFFFFFF AND PUSH1 0xE0 SHL DUP2 MSTORE PUSH1 0x4 ADD PUSH1 0xA0 PUSH1 0x40 MLOAD DUP1 DUP4 SUB DUP2 DUP7 GAS STATICCALL ISZERO DUP1 ISZERO PUSH2 0x19D1 JUMPI RETURNDATASIZE PUSH1 0x0 DUP1 RETURNDATACOPY RETURNDATASIZE PUSH1 0x0 REVERT JUMPDEST POP POP POP POP PUSH1 0x40 MLOAD RETURNDATASIZE PUSH1 0x1F NOT PUSH1 0x1F DUP3 ADD AND DUP3 ADD DUP1 PUSH1 0x40 MSTORE POP DUP2 ADD SWAP1 PUSH2 0x19F5 SWAP2 SWAP1 PUSH2 0x2308 JUMP JUMPDEST POP SWAP4 POP POP SWAP3 POP POP PUSH1 0x0 DUP3 SGT PUSH2 0x1A3C JUMPI PUSH1 0x40 MLOAD PUSH3 0x461BCD PUSH1 0xE5 SHL DUP2 MSTORE PUSH1 0x20 PUSH1 0x4 DUP3 ADD MSTORE PUSH1 0xD PUSH1 0x24 DUP3 ADD MSTORE PUSH13 0x496E76616C6964207072696365 PUSH1 0x98 SHL PUSH1 0x44 DUP3 ADD MSTORE PUSH1 0x64 ADD PUSH2 0x27F JUMP JUMPDEST PUSH2 0x1A48 PUSH2 0xE10 TIMESTAMP PUSH2 0x24BA JUMP JUMPDEST DUP2 GT PUSH2 0x1A8B JUMPI PUSH1 0x40 MLOAD PUSH3 0x461BCD PUSH1 0xE5 SHL DUP2 MSTORE PUSH1 0x20 PUSH1 0x4 DUP3 ADD MSTORE PUSH1 0x12 PUSH1 0x24 DUP3 ADD MSTORE PUSH18 0x141C9A58D94819185D18481D1BDBC81BDB19 PUSH1 0x72 SHL PUSH1 0x44 DUP3 ADD MSTORE PUSH1 0x64 ADD PUSH2 0x27F JUMP JUMPDEST PUSH1 0x0 DUP4 PUSH1 0x1 PUSH1 0x1 PUSH1 0xA0 SHL SUB AND PUSH4 0x313CE567 PUSH1 0x40 MLOAD DUP2 PUSH4 0xFFFFFFFF AND PUSH1 0xE0 SHL DUP2 MSTORE PUSH1 0x4 ADD PUSH1 0x20 PUSH1 0x40 MLOAD DUP1 DUP4 SUB DUP2 DUP7 GAS STATICCALL ISZERO DUP1 ISZERO PUSH2 0x1ACB JUMPI RETURNDATASIZE PUSH1 0x0 DUP1 RETURNDATACOPY RETURNDATASIZE PUSH1 0x0 REVERT JUMPDEST POP POP POP POP PUSH1 0x40 MLOAD RETURNDATASIZE PUSH1 0x1F NOT PUSH1 0x1F DUP3 ADD AND DUP3 ADD DUP1 PUSH1 0x40 MSTORE POP DUP2 ADD SWAP1 PUSH2 0x1AEF SWAP2 SWAP1 PUSH2 0x24CD JUMP JUMPDEST SWAP1 POP PUSH1 0x0 PUSH1 0x1 PUSH1 0x1 PUSH1 0xA0 SHL SUB DUP9 AND PUSH2 0x1B09 JUMPI POP PUSH1 0x12 PUSH2 0x1B75 JUMP JUMPDEST DUP8 PUSH1 0x1 PUSH1 0x1 PUSH1 0xA0 SHL SUB AND PUSH4 0x313CE567 PUSH1 0x40 MLOAD DUP2 PUSH4 0xFFFFFFFF AND PUSH1 0xE0 SHL DUP2 MSTORE PUSH1 0x4 ADD PUSH1 0x20 PUSH1 0x40 MLOAD DUP1 DUP4 SUB DUP2 DUP7 GAS STATICCALL SWAP3 POP POP POP DUP1 ISZERO PUSH2 0x1B63 JUMPI POP PUSH1 0x40 DUP1 MLOAD PUSH1 0x1F RETURNDATASIZE SWAP1 DUP2 ADD PUSH1 0x1F NOT AND DUP3 ADD SWAP1 SWAP3 MSTORE PUSH2 0x1B60 SWAP2 DUP2 ADD SWAP1 PUSH2 0x24CD JUMP JUMPDEST PUSH1 0x1 JUMPDEST PUSH2 0x1B6F JUMPI POP PUSH1 0x12 PUSH2 0x1B75 JUMP JUMPDEST PUSH1 0xFF AND SWAP1 POP JUMPDEST PUSH2 0x1B80 DUP2 PUSH1 0xA PUSH2 0x25D4 JUMP JUMPDEST PUSH2 0x1B8A DUP6 DUP10 PUSH2 0x25E0 JUMP JUMPDEST PUSH2 0x1B94 SWAP2 SWAP1 PUSH2 0x25F7 JUMP JUMPDEST SWAP9 SWAP8 POP POP POP POP POP POP POP POP JUMP JUMPDEST PUSH1 0x3 SLOAD DUP3 SWAP1 ISZERO PUSH2 0x1CEE JUMPI PUSH1 0x0 PUSH2 0x2710 PUSH1 0x3 SLOAD DUP6 PUSH2 0x1BBD SWAP2 SWAP1 PUSH2 0x25E0 JUMP JUMPDEST PUSH2 0x1BC7 SWAP2 SWAP1 PUSH2 0x25F7 JUMP JUMPDEST SWAP1 POP PUSH2 0x1BD3 DUP2 DUP6 PUSH2 0x24BA JUMP JUMPDEST SWAP2 POP PUSH1 0x1 PUSH1 0x1 PUSH1 0xA0 SHL SUB DUP6 AND PUSH2 0x1C82 JUMPI PUSH1 0x4 SLOAD PUSH1 0x40 MLOAD PUSH1 0x0 SWAP2 PUSH1 0x1 PUSH1 0x1 PUSH1 0xA0 SHL SUB AND SWAP1 DUP4 SWAP1 DUP4 DUP2 DUP2 DUP2 DUP6 DUP8 GAS CALL SWAP3 POP POP POP RETURNDATASIZE DUP1 PUSH1 0x0 DUP2 EQ PUSH2 0x1C30 JUMPI PUSH1 0x40 MLOAD SWAP2 POP PUSH1 0x1F NOT PUSH1 0x3F RETURNDATASIZE ADD AND DUP3 ADD PUSH1 0x40 MSTORE RETURNDATASIZE DUP3 MSTORE RETURNDATASIZE PUSH1 0x0 PUSH1 0x20 DUP5 ADD RETURNDATACOPY PUSH2 0x1C35 JUMP JUMPDEST PUSH1 0x60 SWAP2 POP JUMPDEST POP POP SWAP1 POP DUP1 PUSH2 0x1C7C JUMPI PUSH1 0x40 MLOAD PUSH3 0x461BCD PUSH1 0xE5 SHL DUP2 MSTORE PUSH1 0x20 PUSH1 0x4 DUP3 ADD MSTORE PUSH1 0x13 PUSH1 0x24 DUP3 ADD MSTORE PUSH19 0x119959481D1C985B9CD9995C8819985A5B1959 PUSH1 0x6A SHL PUSH1 0x44 DUP3 ADD MSTORE PUSH1 0x64 ADD PUSH2 0x27F JUMP JUMPDEST POP PUSH2 0x1C9E JUMP JUMPDEST PUSH1 0x4 SLOAD PUSH2 0x1C9E SWAP1 PUSH1 0x1 PUSH1 0x1 PUSH1 0xA0 SHL SUB DUP8 DUP2 AND SWAP2 CALLER SWAP2 AND DUP5 PUSH2 0x1F1B JUMP JUMPDEST PUSH1 0x4 SLOAD PUSH1 0x40 DUP1 MLOAD DUP4 DUP2 MSTORE PUSH1 0x1 PUSH1 0x1 PUSH1 0xA0 SHL SUB SWAP1 SWAP3 AND PUSH1 0x20 DUP4 ADD MSTORE TIMESTAMP SWAP1 DUP3 ADD MSTORE DUP4 SWAP1 PUSH32 0x8D0A66B92FB5D5D906102B70251287FFB5254F3578EB366555F99042E800633F SWAP1 PUSH1 0x60 ADD PUSH1 0x40 MLOAD DUP1 SWAP2 SUB SWAP1 LOG2 POP JUMPDEST PUSH1 0x1 PUSH1 0x1 PUSH1 0xA0 SHL SUB DUP5 AND ISZERO PUSH2 0x1762 JUMPI PUSH2 0x1762 PUSH1 0x1 PUSH1 0x1 PUSH1 0xA0 SHL SUB DUP6 AND CALLER ADDRESS DUP5 PUSH2 0x1F1B JUMP JUMPDEST PUSH2 0x1D1A PUSH2 0x18E4 JUMP JUMPDEST PUSH1 0x2 DUP1 SLOAD PUSH1 0xFF NOT AND PUSH1 0x1 OR SWAP1 SSTORE PUSH32 0x62E78CEA01BEE320CD4E420270B5EA74000D11B0C9F74754EBDBFC544B05A258 PUSH2 0x17CB CALLER SWAP1 JUMP JUMPDEST PUSH1 0x0 DUP2 MLOAD GT PUSH2 0x1D98 JUMPI PUSH1 0x40 MLOAD PUSH3 0x461BCD PUSH1 0xE5 SHL DUP2 MSTORE PUSH1 0x20 PUSH1 0x4 DUP3 ADD MSTORE PUSH1 0x15 PUSH1 0x24 DUP3 ADD MSTORE PUSH21 0x496E76616C69642070726F766964657220636F6465 PUSH1 0x58 SHL PUSH1 0x44 DUP3 ADD MSTORE PUSH1 0x64 ADD PUSH2 0x27F JUMP JUMPDEST PUSH1 0x1 PUSH1 0x7 DUP3 PUSH1 0x40 MLOAD PUSH2 0x1DAA SWAP2 SWAP1 PUSH2 0x2284 JUMP JUMPDEST SWAP1 DUP2 MSTORE PUSH1 0x40 MLOAD SWAP1 DUP2 SWAP1 SUB PUSH1 0x20 ADD DUP2 KECCAK256 DUP1 SLOAD SWAP3 ISZERO ISZERO PUSH1 0xFF NOT SWAP1 SWAP4 AND SWAP3 SWAP1 SWAP3 OR SWAP1 SWAP2 SSTORE PUSH32 0xF083C4FB73C9E6DF4D08B4605C1A92C56D967D8FB66D96438B4E78349CF5A5A7 SWAP1 PUSH2 0x883 SWAP1 DUP4 SWAP1 TIMESTAMP SWAP1 PUSH2 0x22CC JUMP JUMPDEST DUP1 MLOAD PUSH1 0x2 EQ PUSH2 0x1E42 JUMPI PUSH1 0x40 MLOAD PUSH3 0x461BCD PUSH1 0xE5 SHL DUP2 MSTORE PUSH1 0x20 PUSH1 0x4 DUP3 ADD MSTORE PUSH1 0x14 PUSH1 0x24 DUP3 ADD MSTORE PUSH20 0x496E76616C696420636F756E74727920636F6465 PUSH1 0x60 SHL PUSH1 0x44 DUP3 ADD MSTORE PUSH1 0x64 ADD PUSH2 0x27F JUMP JUMPDEST PUSH1 0x1 PUSH1 0x8 DUP3 PUSH1 0x40 MLOAD PUSH2 0x1E54 SWAP2 SWAP1 PUSH2 0x2284 JUMP JUMPDEST SWAP1 DUP2 MSTORE PUSH1 0x40 MLOAD SWAP1 DUP2 SWAP1 SUB PUSH1 0x20 ADD DUP2 KECCAK256 DUP1 SLOAD SWAP3 ISZERO ISZERO PUSH1 0xFF NOT SWAP1 SWAP4 AND SWAP3 SWAP1 SWAP3 OR SWAP1 SWAP2 SSTORE PUSH32 0xF464DB501510E8BBED44605F63FE36D73807CB733CB64EAA262BB31227EED042 SWAP1 PUSH2 0x883 SWAP1 DUP4 SWAP1 TIMESTAMP SWAP1 PUSH2 0x22CC JUMP JUMPDEST PUSH1 0x0 DUP1 PUSH1 0x20 PUSH1 0x0 DUP5 MLOAD PUSH1 0x20 DUP7 ADD PUSH1 0x0 DUP9 GAS CALL DUP1 PUSH2 0x1EC7 JUMPI PUSH1 0x40 MLOAD RETURNDATASIZE PUSH1 0x0 DUP3 RETURNDATACOPY RETURNDATASIZE DUP2 REVERT JUMPDEST POP POP PUSH1 0x0 MLOAD RETURNDATASIZE SWAP2 POP DUP2 ISZERO PUSH2 0x1EDF JUMPI DUP1 PUSH1 0x1 EQ ISZERO PUSH2 0x1EEC JUMP JUMPDEST PUSH1 0x1 PUSH1 0x1 PUSH1 0xA0 SHL SUB DUP5 AND EXTCODESIZE ISZERO JUMPDEST ISZERO PUSH2 0x1F15 JUMPI PUSH1 0x40 MLOAD PUSH4 0x5274AFE7 PUSH1 0xE0 SHL DUP2 MSTORE PUSH1 0x1 PUSH1 0x1 PUSH1 0xA0 SHL SUB DUP6 AND PUSH1 0x4 DUP3 ADD MSTORE PUSH1 0x24 ADD PUSH2 0x27F JUMP JUMPDEST POP POP POP POP JUMP JUMPDEST PUSH1 0x40 MLOAD PUSH1 0x1 PUSH1 0x1 PUSH1 0xA0 SHL SUB DUP5 DUP2 AND PUSH1 0x24 DUP4 ADD MSTORE DUP4 DUP2 AND PUSH1 0x44 DUP4 ADD MSTORE PUSH1 0x64 DUP3 ADD DUP4 SWAP1 MSTORE PUSH2 0x1F15 SWAP2 DUP7 SWAP2 DUP3 AND SWAP1 PUSH4 0x23B872DD SWAP1 PUSH1 0x84 ADD PUSH2 0x1838 JUMP JUMPDEST PUSH4 0x4E487B71 PUSH1 0xE0 SHL PUSH1 0x0 MSTORE PUSH1 0x41 PUSH1 0x4 MSTORE PUSH1 0x24 PUSH1 0x0 REVERT JUMPDEST PUSH1 0x0 DUP3 PUSH1 0x1F DUP4 ADD SLT PUSH2 0x1F7B JUMPI PUSH1 0x0 DUP1 REVERT JUMPDEST DUP2 CALLDATALOAD PUSH8 0xFFFFFFFFFFFFFFFF DUP1 DUP3 GT ISZERO PUSH2 0x1F96 JUMPI PUSH2 0x1F96 PUSH2 0x1F54 JUMP JUMPDEST PUSH1 0x40 MLOAD PUSH1 0x1F DUP4 ADD PUSH1 0x1F NOT SWAP1 DUP2 AND PUSH1 0x3F ADD AND DUP2 ADD SWAP1 DUP3 DUP3 GT DUP2 DUP4 LT OR ISZERO PUSH2 0x1FBE JUMPI PUSH2 0x1FBE PUSH2 0x1F54 JUMP JUMPDEST DUP2 PUSH1 0x40 MSTORE DUP4 DUP2 MSTORE DUP7 PUSH1 0x20 DUP6 DUP9 ADD ADD GT ISZERO PUSH2 0x1FD7 JUMPI PUSH1 0x0 DUP1 REVERT JUMPDEST DUP4 PUSH1 0x20 DUP8 ADD PUSH1 0x20 DUP4 ADD CALLDATACOPY PUSH1 0x0 PUSH1 0x20 DUP6 DUP4 ADD ADD MSTORE DUP1 SWAP5 POP POP POP POP POP SWAP3 SWAP2 POP POP JUMP JUMPDEST PUSH1 0x0 PUSH1 0x20 DUP3 DUP5 SUB SLT ISZERO PUSH2 0x2009 JUMPI PUSH1 0x0 DUP1 REVERT JUMPDEST DUP2 CALLDATALOAD PUSH8 0xFFFFFFFFFFFFFFFF DUP2 GT ISZERO PUSH2 0x2020 JUMPI PUSH1 0x0 DUP1 REVERT JUMPDEST PUSH2 0x202C DUP5 DUP3 DUP6 ADD PUSH2 0x1F6A JUMP JUMPDEST SWAP5 SWAP4 POP POP POP POP JUMP JUMPDEST DUP1 CALLDATALOAD PUSH1 0x1 PUSH1 0x1 PUSH1 0xA0 SHL SUB DUP2 AND DUP2 EQ PUSH2 0x1751 JUMPI PUSH1 0x0 DUP1 REVERT JUMPDEST PUSH1 0x0 PUSH1 0x20 DUP3 DUP5 SUB SLT ISZERO PUSH2 0x205D JUMPI PUSH1 0x0 DUP1 REVERT JUMPDEST PUSH2 0x1762 DUP3 PUSH2 0x2034 JUMP JUMPDEST PUSH1 0x0 DUP1 PUSH1 0x0 PUSH1 0x60 DUP5 DUP7 SUB SLT ISZERO PUSH2 0x207B JUMPI PUSH1 0x0 DUP1 REVERT JUMPDEST PUSH2 0x2084 DUP5 PUSH2 0x2034 JUMP JUMPDEST SWAP3 POP PUSH1 0x20 DUP5 ADD CALLDATALOAD SWAP2 POP PUSH2 0x2099 PUSH1 0x40 DUP6 ADD PUSH2 0x2034 JUMP JUMPDEST SWAP1 POP SWAP3 POP SWAP3 POP SWAP3 JUMP JUMPDEST PUSH1 0x0 DUP1 PUSH1 0x0 DUP1 PUSH1 0x0 PUSH1 0xA0 DUP7 DUP9 SUB SLT ISZERO PUSH2 0x20BA JUMPI PUSH1 0x0 DUP1 REVERT JUMPDEST PUSH2 0x20C3 DUP7 PUSH2 0x2034 JUMP JUMPDEST SWAP5 POP PUSH1 0x20 DUP7 ADD CALLDATALOAD SWAP4 POP PUSH1 0x40 DUP7 ADD CALLDATALOAD PUSH8 0xFFFFFFFFFFFFFFFF DUP1 DUP3 GT ISZERO PUSH2 0x20E7 JUMPI PUSH1 0x0 DUP1 REVERT JUMPDEST PUSH2 0x20F3 DUP10 DUP4 DUP11 ADD PUSH2 0x1F6A JUMP JUMPDEST SWAP5 POP PUSH1 0x60 DUP9 ADD CALLDATALOAD SWAP2 POP DUP1 DUP3 GT ISZERO PUSH2 0x2109 JUMPI PUSH1 0x0 DUP1 REVERT JUMPDEST PUSH2 0x2115 DUP10 DUP4 DUP11 ADD PUSH2 0x1F6A JUMP JUMPDEST SWAP4 POP PUSH1 0x80 DUP9 ADD CALLDATALOAD SWAP2 POP DUP1 DUP3 GT ISZERO PUSH2 0x212B JUMPI PUSH1 0x0 DUP1 REVERT JUMPDEST POP PUSH2 0x2138 DUP9 DUP3 DUP10 ADD PUSH2 0x1F6A JUMP JUMPDEST SWAP2 POP POP SWAP3 SWAP6 POP SWAP3 SWAP6 SWAP1 SWAP4 POP JUMP JUMPDEST PUSH1 0x0 DUP1 PUSH1 0x40 DUP4 DUP6 SUB SLT ISZERO PUSH2 0x2158 JUMPI PUSH1 0x0 DUP1 REVERT JUMPDEST PUSH2 0x2161 DUP4 PUSH2 0x2034 JUMP JUMPDEST SWAP2 POP PUSH2 0x216F PUSH1 0x20 DUP5 ADD PUSH2 0x2034 JUMP JUMPDEST SWAP1 POP SWAP3 POP SWAP3 SWAP1 POP JUMP JUMPDEST PUSH1 0x0 DUP1 PUSH1 0x40 DUP4 DUP6 SUB SLT ISZERO PUSH2 0x218B JUMPI PUSH1 0x0 DUP1 REVERT JUMPDEST DUP3 CALLDATALOAD SWAP2 POP PUSH1 0x20 DUP4 ADD CALLDATALOAD PUSH8 0xFFFFFFFFFFFFFFFF DUP2 GT ISZERO PUSH2 0x21A9 JUMPI PUSH1 0x0 DUP1 REVERT JUMPDEST PUSH2 0x21B5 DUP6 DUP3 DUP7 ADD PUSH2 0x1F6A JUMP JUMPDEST SWAP2 POP POP SWAP3 POP SWAP3 SWAP1 POP JUMP JUMPDEST PUSH1 0x0 PUSH1 0x20 DUP3 DUP5 SUB SLT ISZERO PUSH2 0x21D1 JUMPI PUSH1 0x0 DUP1 REVERT JUMPDEST POP CALLDATALOAD SWAP2 SWAP1 POP JUMP JUMPDEST PUSH1 0x0 DUP1 PUSH1 0x0 PUSH1 0x60 DUP5 DUP7 SUB SLT ISZERO PUSH2 0x21ED JUMPI PUSH1 0x0 DUP1 REVERT JUMPDEST DUP4 CALLDATALOAD SWAP3 POP PUSH1 0x20 DUP5 ADD CALLDATALOAD DUP1 ISZERO ISZERO DUP2 EQ PUSH2 0x2204 JUMPI PUSH1 0x0 DUP1 REVERT JUMPDEST SWAP2 POP PUSH1 0x40 DUP5 ADD CALLDATALOAD PUSH8 0xFFFFFFFFFFFFFFFF DUP2 GT ISZERO PUSH2 0x2220 JUMPI PUSH1 0x0 DUP1 REVERT JUMPDEST PUSH2 0x222C DUP7 DUP3 DUP8 ADD PUSH2 0x1F6A JUMP JUMPDEST SWAP2 POP POP SWAP3 POP SWAP3 POP SWAP3 JUMP JUMPDEST PUSH1 0x0 DUP1 PUSH1 0x40 DUP4 DUP6 SUB SLT ISZERO PUSH2 0x2249 JUMPI PUSH1 0x0 DUP1 REVERT JUMPDEST PUSH2 0x2252 DUP4 PUSH2 0x2034 JUMP JUMPDEST SWAP5 PUSH1 0x20 SWAP4 SWAP1 SWAP4 ADD CALLDATALOAD SWAP4 POP POP POP JUMP JUMPDEST PUSH1 0x0 JUMPDEST DUP4 DUP2 LT ISZERO PUSH2 0x227B JUMPI DUP2 DUP2 ADD MLOAD DUP4 DUP3 ADD MSTORE PUSH1 0x20 ADD PUSH2 0x2263 JUMP JUMPDEST POP POP PUSH1 0x0 SWAP2 ADD MSTORE JUMP JUMPDEST PUSH1 0x0 DUP3 MLOAD PUSH2 0x2296 DUP2 DUP5 PUSH1 0x20 DUP8 ADD PUSH2 0x2260 JUMP JUMPDEST SWAP2 SWAP1 SWAP2 ADD SWAP3 SWAP2 POP POP JUMP JUMPDEST PUSH1 0x0 DUP2 MLOAD DUP1 DUP5 MSTORE PUSH2 0x22B8 DUP2 PUSH1 0x20 DUP7 ADD PUSH1 0x20 DUP7 ADD PUSH2 0x2260 JUMP JUMPDEST PUSH1 0x1F ADD PUSH1 0x1F NOT AND SWAP3 SWAP1 SWAP3 ADD PUSH1 0x20 ADD SWAP3 SWAP2 POP POP JUMP JUMPDEST PUSH1 0x40 DUP2 MSTORE PUSH1 0x0 PUSH2 0x22DF PUSH1 0x40 DUP4 ADD DUP6 PUSH2 0x22A0 JUMP JUMPDEST SWAP1 POP DUP3 PUSH1 0x20 DUP4 ADD MSTORE SWAP4 SWAP3 POP POP POP JUMP JUMPDEST DUP1 MLOAD PUSH10 0xFFFFFFFFFFFFFFFFFFFF DUP2 AND DUP2 EQ PUSH2 0x1751 JUMPI PUSH1 0x0 DUP1 REVERT JUMPDEST PUSH1 0x0 DUP1 PUSH1 0x0 DUP1 PUSH1 0x0 PUSH1 0xA0 DUP7 DUP9 SUB SLT ISZERO PUSH2 0x2320 JUMPI PUSH1 0x0 DUP1 REVERT JUMPDEST PUSH2 0x2329 DUP7 PUSH2 0x22EE JUMP JUMPDEST SWAP5 POP PUSH1 0x20 DUP7 ADD MLOAD SWAP4 POP PUSH1 0x40 DUP7 ADD MLOAD SWAP3 POP PUSH1 0x60 DUP7 ADD MLOAD SWAP2 POP PUSH2 0x234C PUSH1 0x80 DUP8 ADD PUSH2 0x22EE JUMP JUMPDEST SWAP1 POP SWAP3 SWAP6 POP SWAP3 SWAP6 SWAP1 SWAP4 POP JUMP JUMPDEST PUSH1 0x0 PUSH1 0x20 DUP3 DUP5 SUB SLT ISZERO PUSH2 0x236A JUMPI PUSH1 0x0 DUP1 REVERT JUMPDEST POP MLOAD SWAP2 SWAP1 POP JUMP JUMPDEST PUSH1 0x0 PUSH12 0xFFFFFFFFFFFFFFFFFFFFFFFF NOT DUP1 DUP12 PUSH1 0x60 SHL AND DUP4 MSTORE DUP1 DUP11 PUSH1 0x60 SHL AND PUSH1 0x14 DUP5 ADD MSTORE POP DUP8 PUSH1 0x28 DUP4 ADD MSTORE DUP7 MLOAD PUSH2 0x23AE DUP2 PUSH1 0x48 DUP6 ADD PUSH1 0x20 DUP12 ADD PUSH2 0x2260 JUMP JUMPDEST DUP7 MLOAD SWAP1 DUP4 ADD SWAP1 PUSH2 0x23C5 DUP2 PUSH1 0x48 DUP5 ADD PUSH1 0x20 DUP12 ADD PUSH2 0x2260 JUMP JUMPDEST DUP7 MLOAD SWAP2 ADD SWAP1 PUSH2 0x23DB DUP2 PUSH1 0x48 DUP5 ADD PUSH1 0x20 DUP11 ADD PUSH2 0x2260 JUMP JUMPDEST ADD PUSH1 0x48 DUP2 ADD SWAP5 SWAP1 SWAP5 MSTORE POP POP PUSH1 0x68 DUP3 ADD MSTORE PUSH1 0x88 ADD SWAP7 SWAP6 POP POP POP POP POP POP JUMP JUMPDEST PUSH4 0x4E487B71 PUSH1 0xE0 SHL PUSH1 0x0 MSTORE PUSH1 0x11 PUSH1 0x4 MSTORE PUSH1 0x24 PUSH1 0x0 REVERT JUMPDEST PUSH1 0x0 PUSH1 0x1 DUP3 ADD PUSH2 0x2420 JUMPI PUSH2 0x2420 PUSH2 0x23F8 JUMP JUMPDEST POP PUSH1 0x1 ADD SWAP1 JUMP JUMPDEST DUP1 DUP3 ADD DUP1 DUP3 GT ISZERO PUSH2 0x125E JUMPI PUSH2 0x125E PUSH2 0x23F8 JUMP JUMPDEST DUP7 DUP2 MSTORE PUSH1 0xC0 PUSH1 0x20 DUP3 ADD MSTORE PUSH1 0x0 PUSH2 0x2453 PUSH1 0xC0 DUP4 ADD DUP9 PUSH2 0x22A0 JUMP JUMPDEST DUP3 DUP2 SUB PUSH1 0x40 DUP5 ADD MSTORE PUSH2 0x2465 DUP2 DUP9 PUSH2 0x22A0 JUMP JUMPDEST SWAP1 POP DUP3 DUP2 SUB PUSH1 0x60 DUP5 ADD MSTORE PUSH2 0x2479 DUP2 DUP8 PUSH2 0x22A0 JUMP JUMPDEST PUSH1 0x80 DUP5 ADD SWAP6 SWAP1 SWAP6 MSTORE POP POP PUSH1 0xA0 ADD MSTORE SWAP5 SWAP4 POP POP POP POP JUMP JUMPDEST DUP4 ISZERO ISZERO DUP2 MSTORE PUSH1 0x60 PUSH1 0x20 DUP3 ADD MSTORE PUSH1 0x0 PUSH2 0x24AA PUSH1 0x60 DUP4 ADD DUP6 PUSH2 0x22A0 JUMP JUMPDEST SWAP1 POP DUP3 PUSH1 0x40 DUP4 ADD MSTORE SWAP5 SWAP4 POP POP POP POP JUMP JUMPDEST DUP2 DUP2 SUB DUP2 DUP2 GT ISZERO PUSH2 0x125E JUMPI PUSH2 0x125E PUSH2 0x23F8 JUMP JUMPDEST PUSH1 0x0 PUSH1 0x20 DUP3 DUP5 SUB SLT ISZERO PUSH2 0x24DF JUMPI PUSH1 0x0 DUP1 REVERT JUMPDEST DUP2 MLOAD PUSH1 0xFF DUP2 AND DUP2 EQ PUSH2 0x1762 JUMPI PUSH1 0x0 DUP1 REVERT JUMPDEST PUSH1 0x1 DUP2 DUP2 JUMPDEST DUP1 DUP6 GT ISZERO PUSH2 0x252B JUMPI DUP2 PUSH1 0x0 NOT DIV DUP3 GT ISZERO PUSH2 0x2511 JUMPI PUSH2 0x2511 PUSH2 0x23F8 JUMP JUMPDEST DUP1 DUP6 AND ISZERO PUSH2 0x251E JUMPI SWAP2 DUP2 MUL SWAP2 JUMPDEST SWAP4 DUP5 SHR SWAP4 SWAP1 DUP1 MUL SWAP1 PUSH2 0x24F5 JUMP JUMPDEST POP SWAP3 POP SWAP3 SWAP1 POP JUMP JUMPDEST PUSH1 0x0 DUP3 PUSH2 0x2542 JUMPI POP PUSH1 0x1 PUSH2 0x125E JUMP JUMPDEST DUP2 PUSH2 0x254F JUMPI POP PUSH1 0x0 PUSH2 0x125E JUMP JUMPDEST DUP2 PUSH1 0x1 DUP2 EQ PUSH2 0x2565 JUMPI PUSH1 0x2 DUP2 EQ PUSH2 0x256F JUMPI PUSH2 0x258B JUMP JUMPDEST PUSH1 0x1 SWAP2 POP POP PUSH2 0x125E JUMP JUMPDEST PUSH1 0xFF DUP5 GT ISZERO PUSH2 0x2580 JUMPI PUSH2 0x2580 PUSH2 0x23F8 JUMP JUMPDEST POP POP PUSH1 0x1 DUP3 SHL PUSH2 0x125E JUMP JUMPDEST POP PUSH1 0x20 DUP4 LT PUSH2 0x133 DUP4 LT AND PUSH1 0x4E DUP5 LT PUSH1 0xB DUP5 LT AND OR ISZERO PUSH2 0x25AE JUMPI POP DUP2 DUP2 EXP PUSH2 0x125E JUMP JUMPDEST PUSH2 0x25B8 DUP4 DUP4 PUSH2 0x24F0 JUMP JUMPDEST DUP1 PUSH1 0x0 NOT DIV DUP3 GT ISZERO PUSH2 0x25CC JUMPI PUSH2 0x25CC PUSH2 0x23F8 JUMP JUMPDEST MUL SWAP4 SWAP3 POP POP POP JUMP JUMPDEST PUSH1 0x0 PUSH2 0x1762 DUP4 DUP4 PUSH2 0x2533 JUMP JUMPDEST DUP1 DUP3 MUL DUP2 ISZERO DUP3 DUP3 DIV DUP5 EQ OR PUSH2 0x125E JUMPI PUSH2 0x125E PUSH2 0x23F8 JUMP JUMPDEST PUSH1 0x0 DUP3 PUSH2 0x2614 JUMPI PUSH4 0x4E487B71 PUSH1 0xE0 SHL PUSH1 0x0 MSTORE PUSH1 0x12 PUSH1 0x4 MSTORE PUSH1 0x24 PUSH1 0x0 REVERT JUMPDEST POP DIV SWAP1 JUMP INVALID LOG2 PUSH5 0x6970667358 0x22 SLT KECCAK256 0x4D PREVRANDAO 0x25 SWAP7 PUSH8 0x9DBB8B2BEE662524 0xDB 0xDA 0xBF EXTCODECOPY 0xD4 DUP13 SWAP16 0xAA 0xE6 DUP6 DUP8 PUSH2 0x80A0 BLOCKHASH PUSH19 0xBFB40C64736F6C634300081800330000000000 "},"methodIdentifiers":{"BASIS_POINTS()":"e1f1c4a7","MAX_FEE_RATE()":"92f6576e","MIN_TRANSFER_AMOUNT()":"3c3dbbc7","addCountry(string)":"c87e4359","addOperator(address)":"9870d7fe","addProvider(string)":"afff7966","authorizedOperators(address)":"181d989b","completeTransfer(bytes32,bool,string)":"dbe3fe1d","emergencyWithdraw(address,uint256,address)":"551512de","ethUsdPriceFeed()":"42f6fb29","failTransfer(bytes32,string)":"819d938f","feeCollector()":"c415b95c","getBalance(address)":"f8b2cb4f","getLatestPrice(address)":"16345f18","getStats()":"c59d4847","getUSDValue(address,uint256)":"fa76dcf2","initiateTransfer(address,uint256,string,string,string)":"734c5f3d","isAuthorizedOperator(address)":"82d52c1e","isCountrySupported(string)":"063250d8","isProviderSupported(string)":"dfbf509b","owner()":"8da5cb5b","pause()":"8456cb59","paused()":"5c975abb","platformFeeRate()":"eeca08f0","priceFeeds(address)":"9dcb511a","processedTransactions(bytes32)":"ac2e4936","removeCountry(string)":"106b2192","removeOperator(address)":"ac8a584a","removeProvider(string)":"5806669f","renounceOwnership()":"715018a6","setEthPriceFeed(address)":"c011c9eb","setFeeCollector(address)":"a42dce80","setPlatformFeeRate(uint256)":"927fef2e","setPriceFeed(address,address)":"76e11286","supportedCountries(string)":"4a54870a","supportedProviders(string)":"72fcfaf7","totalTransactions()":"b9a60038","totalVolumeUSD()":"9291ccd5","transferOwnership(address)":"f2fde38b","unpause()":"3f4ba83a"}}}}}