{
  "_format": "hh-sol-artifact-1",
  "contractName": "EthSpendaFactory",
  "sourceName": "contracts/EthSpendaFactory.sol",
  "abi": [
    {
      "inputs": [],
      "stateMutability": "nonpayable",
      "type": "constructor"
    },
    {
      "inputs": [
        {
          "internalType": "address",
          "name": "owner",
          "type": "address"
        }
      ],
      "name": "OwnableInvalidOwner",
      "type": "error"
    },
    {
      "inputs": [
        {
          "internalType": "address",
          "name": "account",
          "type": "address"
        }
      ],
      "name": "OwnableUnauthorizedAccount",
      "type": "error"
    },
    {
      "anonymous": false,
      "inputs": [
        {
          "indexed": true,
          "internalType": "address",
          "name": "ethSpendaAddress",
          "type": "address"
        },
        {
          "indexed": true,
          "internalType": "uint256",
          "name": "chainId",
          "type": "uint256"
        },
        {
          "indexed": false,
          "internalType": "address",
          "name": "ethUsdPriceFeed",
          "type": "address"
        },
        {
          "indexed": false,
          "internalType": "address",
          "name": "feeCollector",
          "type": "address"
        },
        {
          "indexed": false,
          "internalType": "uint256",
          "name": "platformFeeRate",
          "type": "uint256"
        },
        {
          "indexed": false,
          "internalType": "uint256",
          "name": "timestamp",
          "type": "uint256"
        }
      ],
      "name": "EthSpendaDeployed",
      "type": "event"
    },
    {
      "anonymous": false,
      "inputs": [
        {
          "indexed": true,
          "internalType": "address",
          "name": "previousOwner",
          "type": "address"
        },
        {
          "indexed": true,
          "internalType": "address",
          "name": "newOwner",
          "type": "address"
        }
      ],
      "name": "OwnershipTransferred",
      "type": "event"
    },
    {
      "inputs": [
        {
          "internalType": "uint256",
          "name": "",
          "type": "uint256"
        }
      ],
      "name": "allDeployedContracts",
      "outputs": [
        {
          "internalType": "address",
          "name": "",
          "type": "address"
        }
      ],
      "stateMutability": "view",
      "type": "function"
    },
    {
      "inputs": [
        {
          "internalType": "uint256",
          "name": "",
          "type": "uint256"
        }
      ],
      "name": "defaultParams",
      "outputs": [
        {
          "internalType": "address",
          "name": "ethUsdPriceFeed",
          "type": "address"
        },
        {
          "internalType": "address",
          "name": "feeCollector",
          "type": "address"
        },
        {
          "internalType": "uint256",
          "name": "platformFeeRate",
          "type": "uint256"
        }
      ],
      "stateMutability": "view",
      "type": "function"
    },
    {
      "inputs": [
        {
          "internalType": "address",
          "name": "ethUsdPriceFeed",
          "type": "address"
        },
        {
          "internalType": "address",
          "name": "feeCollector",
          "type": "address"
        },
        {
          "internalType": "uint256",
          "name": "platformFeeRate",
          "type": "uint256"
        }
      ],
      "name": "deployEthSpenda",
      "outputs": [
        {
          "internalType": "address",
          "name": "",
          "type": "address"
        }
      ],
      "stateMutability": "nonpayable",
      "type": "function"
    },
    {
      "inputs": [],
      "name": "deployEthSpendaWithDefaults",
      "outputs": [
        {
          "internalType": "address",
          "name": "",
          "type": "address"
        }
      ],
      "stateMutability": "nonpayable",
      "type": "function"
    },
    {
      "inputs": [
        {
          "internalType": "uint256",
          "name": "",
          "type": "uint256"
        }
      ],
      "name": "deployedContracts",
      "outputs": [
        {
          "internalType": "address",
          "name": "",
          "type": "address"
        }
      ],
      "stateMutability": "view",
      "type": "function"
    },
    {
      "inputs": [],
      "name": "getAllDeployedContracts",
      "outputs": [
        {
          "internalType": "address[]",
          "name": "",
          "type": "address[]"
        }
      ],
      "stateMutability": "view",
      "type": "function"
    },
    {
      "inputs": [],
      "name": "getCurrentChainDeployment",
      "outputs": [
        {
          "internalType": "bool",
          "name": "deployed",
          "type": "bool"
        },
        {
          "internalType": "address",
          "name": "contractAddress",
          "type": "address"
        }
      ],
      "stateMutability": "view",
      "type": "function"
    },
    {
      "inputs": [
        {
          "internalType": "uint256",
          "name": "chainId",
          "type": "uint256"
        }
      ],
      "name": "getDefaultParams",
      "outputs": [
        {
          "internalType": "address",
          "name": "ethUsdPriceFeed",
          "type": "address"
        },
        {
          "internalType": "address",
          "name": "feeCollector",
          "type": "address"
        },
        {
          "internalType": "uint256",
          "name": "platformFeeRate",
          "type": "uint256"
        }
      ],
      "stateMutability": "view",
      "type": "function"
    },
    {
      "inputs": [
        {
          "internalType": "uint256",
          "name": "chainId",
          "type": "uint256"
        }
      ],
      "name": "getDeployedContract",
      "outputs": [
        {
          "internalType": "address",
          "name": "",
          "type": "address"
        }
      ],
      "stateMutability": "view",
      "type": "function"
    },
    {
      "inputs": [],
      "name": "getDeploymentCount",
      "outputs": [
        {
          "internalType": "uint256",
          "name": "",
          "type": "uint256"
        }
      ],
      "stateMutability": "view",
      "type": "function"
    },
    {
      "inputs": [
        {
          "internalType": "uint256",
          "name": "chainId",
          "type": "uint256"
        }
      ],
      "name": "isDeployedOnChain",
      "outputs": [
        {
          "internalType": "bool",
          "name": "",
          "type": "bool"
        }
      ],
      "stateMutability": "view",
      "type": "function"
    },
    {
      "inputs": [],
      "name": "owner",
      "outputs": [
        {
          "internalType": "address",
          "name": "",
          "type": "address"
        }
      ],
      "stateMutability": "view",
      "type": "function"
    },
    {
      "inputs": [],
      "name": "renounceOwnership",
      "outputs": [],
      "stateMutability": "nonpayable",
      "type": "function"
    },
    {
      "inputs": [
        {
          "internalType": "uint256",
          "name": "chainId",
          "type": "uint256"
        },
        {
          "internalType": "address",
          "name": "ethUsdPriceFeed",
          "type": "address"
        },
        {
          "internalType": "address",
          "name": "feeCollector",
          "type": "address"
        },
        {
          "internalType": "uint256",
          "name": "platformFeeRate",
          "type": "uint256"
        }
      ],
      "name": "setDefaultParams",
      "outputs": [],
      "stateMutability": "nonpayable",
      "type": "function"
    },
    {
      "inputs": [
        {
          "internalType": "address",
          "name": "newOwner",
          "type": "address"
        }
      ],
      "name": "transferOwnership",
      "outputs": [],
      "stateMutability": "nonpayable",
      "type": "function"
    }
  ],
  "bytecode": "0x608060405234801561001057600080fd5b50338061003757604051631e4fbdf760e01b81526000600482015260240160405180910390fd5b610040816103c4565b506103bf6040805160608082018352735f4ec3df9cbd43714fe2740f5e3616155c5b84198252336020808401828152600085870181815260018252600380855296517fa15bc60c955c405d20d9149c709e2460f1c2d9a497496a7f46004d1772c3054c80546001600160a01b03199081166001600160a01b039384161790915593517fa15bc60c955c405d20d9149c709e2460f1c2d9a497496a7f46004d1772c3054d8054861691831691909117905590517fa15bc60c955c405d20d9149c709e2460f1c2d9a497496a7f46004d1772c3054e55875180870189527371041dddad3595f9ced3dccfbe3d1f4b0a16bb708152808501868152818a01848152612105855289875291517f6ae340ffc0ca34b7018bb71046e01f0458aba60527fcbfc3c36b28e87d7d8eec80548716918516919091179055517f6ae340ffc0ca34b7018bb71046e01f0458aba60527fcbfc3c36b28e87d7d8eed80548616918416919091179055517f6ae340ffc0ca34b7018bb71046e01f0458aba60527fcbfc3c36b28e87d7d8eee5587518087018952734adc67696ba383f43dd60a9e78f2c97fbbfc7cb18152808501868152818a0184815262014a34855289875291517fc43fcd9b3474ab18c89e85f2e757085a8fbb26df978bfd9813b9b1fbd540a99180548716918516919091179055517fc43fcd9b3474ab18c89e85f2e757085a8fbb26df978bfd9813b9b1fbd540a99280548616918416919091179055517fc43fcd9b3474ab18c89e85f2e757085a8fbb26df978bfd9813b9b1fbd540a9935587518087018952828152808501868152818a0184815261046f855289875291517f43746d8b7f7766962e574f679025dc92a5c5768efda7f7a453ec18aa80bdeabd80548716918516919091179055517f43746d8b7f7766962e574f679025dc92a5c5768efda7f7a453ec18aa80bdeabe80548616918416919091179055517f43746d8b7f7766962e574f679025dc92a5c5768efda7f7a453ec18aa80bdeabf558751958601885281865285840194855296850181815261106a9091529490915291517e08c773647162fda7c788164d5d192b2583bcdd791e8682023fe5a9b766d32080548416918616919091179055517e08c773647162fda7c788164d5d192b2583bcdd791e8682023fe5a9b766d3218054909216931692909217909155517e08c773647162fda7c788164d5d192b2583bcdd791e8682023fe5a9b766d32255565b610414565b600080546001600160a01b038381166001600160a01b0319831681178455604051919092169283917f8be0079c531659141344cd1fd0a4f28419497f9722a3daafe3b4186f6b6457e09190a35050565b6135f0806104236000396000f3fe60806040523480156200001157600080fd5b5060043610620001095760003560e01c80639ad1ee1011620000a3578063b7302251116200006e578063b730225114620002f9578063b73842d91462000303578063d6af675d1462000346578063f2fde38b146200035d57600080fd5b80639ad1ee101462000265578063a82502271462000291578063aa6d0a9814620002d0578063b3eedf1214620002e757600080fd5b8063715018a611620000e4578063715018a614620001eb578063831c317214620001f757806384bd012c146200023c5780638da5cb5b146200025357600080fd5b80630c820036146200010e5780633191ece914620001935780636c9364b214620001d2575b600080fd5b620001686200011f3660046200088c565b600081815260036020908152604091829020825160608101845281546001600160a01b039081168083526001840154909116938201849052600290920154930183905293909250565b604080516001600160a01b039485168152939092166020840152908201526060015b60405180910390f35b62000168620001a43660046200088c565b6003602052600090815260409020805460018201546002909201546001600160a01b03918216929091169083565b620001dc62000374565b6040516200018a9190620008a6565b620001f5620003d8565b005b62000223620002083660046200088c565b6000908152600160205260409020546001600160a01b031690565b6040516001600160a01b0390911681526020016200018a565b620001f56200024d36600462000912565b620003f0565b6000546001600160a01b031662000223565b62000223620002763660046200088c565b6001602052600090815260409020546001600160a01b031681565b620002bf620002a23660046200088c565b6000908152600160205260409020546001600160a01b0316151590565b60405190151581526020016200018a565b62000223620002e13660046200088c565b6200054b565b6002546040519081526020016200018a565b6200022362000576565b62000326466000908152600160205260409020546001600160a01b031680151591565b6040805192151583526001600160a01b039091166020830152016200018a565b62000223620003573660046200095b565b62000636565b620001f56200036e3660046200099c565b620007bb565b60606002805480602002602001604051908101604052809291908181526020018280548015620003ce57602002820191906000526020600020905b81546001600160a01b03168152600190910190602001808311620003af575b5050505050905090565b620003e2620007ff565b620003ee60006200082e565b565b620003fa620007ff565b6001600160a01b0383166200044b5760405162461bcd60e51b8152602060048201526012602482015271125b9d985b1a59081c1c9a58d9481999595960721b60448201526064015b60405180910390fd5b6001600160a01b0382166200049b5760405162461bcd60e51b815260206004820152601560248201527424b73b30b634b2103332b29031b7b63632b1ba37b960591b604482015260640162000442565b6101f4811115620004e35760405162461bcd60e51b815260206004820152601160248201527008ccaca40e4c2e8ca40e8dede40d0d2ced607b1b604482015260640162000442565b604080516060810182526001600160a01b03948516815292841660208085019182528483019384526000968752600390529420915182549084166001600160a01b03199182161783559351600183018054919094169416939093179091559051600290910155565b600281815481106200055c57600080fd5b6000918252602090912001546001600160a01b0316905081565b600062000582620007ff565b46600090815260036020908152604091829020825160608101845281546001600160a01b0390811680835260018401549091169382019390935260029091015492810192909252620006175760405162461bcd60e51b815260206004820181905260248201527f4e6f2064656661756c7420706172616d7320666f72207468697320636861696e604482015260640162000442565b6200063081600001518260200151836040015162000636565b91505090565b600062000642620007ff565b466000908152600160205260409020546001600160a01b031615620006aa5760405162461bcd60e51b815260206004820152601e60248201527f416c7265616479206465706c6f796564206f6e207468697320636861696e0000604482015260640162000442565b6000848484604051620006bd906200087e565b6001600160a01b0393841681529290911660208301526040820152606001604051809103906000f080158015620006f8573d6000803e3d6000fd5b5046600081815260016020818152604080842080546001600160a01b03199081166001600160a01b038981169182179093556002805496870181559096527f405787fa12a823e0f2b7631cc41b3ba8828b3321ca811111fa75cd3aa3bb5ace9094018054909416851790935580518b84168152928a1691830191909152810187905242606082015292935083927fa81a96e9f0f3461aef49fe5e789364109b0d17826e308b4ffa02e947983c9e979060800160405180910390a395945050505050565b620007c5620007ff565b6001600160a01b038116620007f157604051631e4fbdf760e01b81526000600482015260240162000442565b620007fc816200082e565b50565b6000546001600160a01b03163314620003ee5760405163118cdaa760e01b815233600482015260240162000442565b600080546001600160a01b038381166001600160a01b0319831681178455604051919092169283917f8be0079c531659141344cd1fd0a4f28419497f9722a3daafe3b4186f6b6457e09190a35050565b612bf980620009c283390190565b6000602082840312156200089f57600080fd5b5035919050565b6020808252825182820181905260009190848201906040850190845b81811015620008e95783516001600160a01b031683529284019291840191600101620008c2565b50909695505050505050565b80356001600160a01b03811681146200090d57600080fd5b919050565b600080600080608085870312156200092957600080fd5b843593506200093b60208601620008f5565b92506200094b60408601620008f5565b9396929550929360600135925050565b6000806000606084860312156200097157600080fd5b6200097c84620008f5565b92506200098c60208501620008f5565b9150604084013590509250925092565b600060208284031215620009af57600080fd5b620009ba82620008f5565b939250505056fe60806040523480156200001157600080fd5b5060405162002bf938038062002bf983398101604081905262000034916200053f565b33806200005c57604051631e4fbdf760e01b8152600060048201526024015b60405180910390fd5b620000678162000355565b50600180556001600160a01b038316620000c45760405162461bcd60e51b815260206004820152601660248201527f496e76616c696420455448207072696365206665656400000000000000000000604482015260640162000053565b6001600160a01b0382166200011c5760405162461bcd60e51b815260206004820152601560248201527f496e76616c69642066656520636f6c6c6563746f720000000000000000000000604482015260640162000053565b6101f4811115620001645760405162461bcd60e51b815260206004820152601160248201527008ccaca40e4c2e8ca40e8dede40d0d2ced607b1b604482015260640162000053565b600680546001600160a01b038086166001600160a01b03199283161790925560048054928516929091169190911790556003819055336000908152600c6020908152604091829020805460ff19166001179055815180830190925260028252614b4560f01b90820152620001d890620003a5565b6040805180820190915260028152614e4760f01b6020820152620001fc90620003a5565b60408051808201909152600281526108e960f31b60208201526200022090620003a5565b604080518082019091526002815261554760f01b60208201526200024490620003a5565b6040805180820190915260028152612a2d60f11b60208201526200026890620003a5565b604080518082019091526002815261525760f01b60208201526200028c90620003a5565b6040805180820190915260058152646d7065736160d81b6020820152620002b39062000469565b604080518082019091526006815265185a5c9d195b60d21b6020820152620002db9062000469565b6040805180820190915260048152636f70617960e01b6020820152620003019062000469565b6040805180820190915260048152636b75646160e01b6020820152620003279062000469565b60408051808201909152600381526236ba3760e91b60208201526200034c9062000469565b50505062000601565b600080546001600160a01b038381166001600160a01b0319831681178455604051919092169283917f8be0079c531659141344cd1fd0a4f28419497f9722a3daafe3b4186f6b6457e09190a35050565b8051600214620003f85760405162461bcd60e51b815260206004820152601460248201527f496e76616c696420636f756e74727920636f6465000000000000000000000000604482015260640162000053565b60016008826040516200040c9190620005a6565b908152604051908190036020018120805492151560ff19909316929092179091557ff464db501510e8bbed44605f63fe36d73807cb733cb64eaa262bb31227eed042906200045e9083904290620005c4565b60405180910390a150565b6000815111620004bc5760405162461bcd60e51b815260206004820152601560248201527f496e76616c69642070726f766964657220636f64650000000000000000000000604482015260640162000053565b6001600782604051620004d09190620005a6565b908152604051908190036020018120805492151560ff19909316929092179091557ff083c4fb73c9e6df4d08b4605c1a92c56d967d8fb66d96438b4e78349cf5a5a7906200045e9083904290620005c4565b80516001600160a01b03811681146200053a57600080fd5b919050565b6000806000606084860312156200055557600080fd5b620005608462000522565b9250620005706020850162000522565b9150604084015190509250925092565b60005b838110156200059d57818101518382015260200162000583565b50506000910152565b60008251620005ba81846020870162000580565b9190910192915050565b6040815260008351806040840152620005e581606085016020880162000580565b602083019390935250601f91909101601f191601606001919050565b6125e880620006116000396000f3fe60806040526004361061023f5760003560e01c80639291ccd51161012e578063c415b95c116100ab578063e1f1c4a71161006f578063e1f1c4a714610762578063eeca08f014610778578063f2fde38b1461078e578063f8b2cb4f146107ae578063fa76dcf2146107ce57610246565b8063c415b95c146106ab578063c59d4847146106cb578063c87e435914610702578063dbe3fe1d14610722578063dfbf509b1461074257610246565b8063ac2e4936116100f2578063ac2e493614610605578063ac8a584a14610635578063afff796614610655578063b9a6003814610675578063c011c9eb1461068b57610246565b80639291ccd51461056357806392f6576e146105795780639870d7fe1461058f5780639dcb511a146105af578063a42dce80146105e557610246565b80635c975abb116101bc578063819d938f11610180578063819d938f146104d057806382d52c1e146104f05780638456cb59146105105780638da5cb5b14610525578063927fef2e1461054357610246565b80635c975abb14610435578063715018a61461044d57806372fcfaf714610462578063734c5f3d1461049d57806376e11286146104b057610246565b80633f4ba83a116102035780633f4ba83a1461036d57806342f6fb29146103825780634a54870a146103ba578063551512de146103f55780635806669f1461041557610246565b8063063250d814610288578063106b2192146102bd57806316345f18146102df578063181d989b146103145780633c3dbbc71461034457610246565b3661024657005b60405162461bcd60e51b8152602060048201526012602482015271119d5b98dd1a5bdb881b9bdd08199bdd5b9960721b60448201526064015b60405180910390fd5b34801561029457600080fd5b506102a86102a3366004611f90565b6107ee565b60405190151581526020015b60405180910390f35b3480156102c957600080fd5b506102dd6102d8366004611f90565b610819565b005b3480156102eb57600080fd5b506102ff6102fa366004611fe4565b61088e565b604080519283526020830191909152016102b4565b34801561032057600080fd5b506102a861032f366004611fe4565b600c6020526000908152604090205460ff1681565b34801561035057600080fd5b5061035f66038d7ea4c6800081565b6040519081526020016102b4565b34801561037957600080fd5b506102dd610993565b34801561038e57600080fd5b506006546103a2906001600160a01b031681565b6040516001600160a01b0390911681526020016102b4565b3480156103c657600080fd5b506102a86103d5366004611f90565b805160208183018101805160088252928201919093012091525460ff1681565b34801561040157600080fd5b506102dd610410366004611fff565b6109a5565b34801561042157600080fd5b506102dd610430366004611f90565b610b5d565b34801561044157600080fd5b5060025460ff166102a8565b34801561045957600080fd5b506102dd610bc7565b34801561046e57600080fd5b506102a861047d366004611f90565b805160208183018101805160078252928201919093012091525460ff1681565b61035f6104ab36600461203b565b610bd9565b3480156104bc57600080fd5b506102dd6104cb3660046120de565b611073565b3480156104dc57600080fd5b506102dd6104eb366004612111565b61112b565b3480156104fc57600080fd5b506102a861050b366004611fe4565b61122a565b34801561051c57600080fd5b506102dd611264565b34801561053157600080fd5b506000546001600160a01b03166103a2565b34801561054f57600080fd5b506102dd61055e366004612158565b611274565b34801561056f57600080fd5b5061035f600b5481565b34801561058557600080fd5b5061035f6101f481565b34801561059b57600080fd5b506102dd6105aa366004611fe4565b6112c7565b3480156105bb57600080fd5b506103a26105ca366004611fe4565b6005602052600090815260409020546001600160a01b031681565b3480156105f157600080fd5b506102dd610600366004611fe4565b611378565b34801561061157600080fd5b506102a8610620366004612158565b60096020526000908152604090205460ff1681565b34801561064157600080fd5b506102dd610650366004611fe4565b6113f0565b34801561066157600080fd5b506102dd610670366004611f90565b61144a565b34801561068157600080fd5b5061035f600a5481565b34801561069757600080fd5b506102dd6106a6366004611fe4565b61145e565b3480156106b757600080fd5b506004546103a2906001600160a01b031681565b3480156106d757600080fd5b506106e0611508565b60408051948552602085019390935291830152151560608201526080016102b4565b34801561070e57600080fd5b506102dd61071d366004611f90565b611531565b34801561072e57600080fd5b506102dd61073d366004612171565b611542565b34801561074e57600080fd5b506102a861075d366004611f90565b611685565b34801561076e57600080fd5b5061035f61271081565b34801561078457600080fd5b5061035f60035481565b34801561079a57600080fd5b506102dd6107a9366004611fe4565b611697565b3480156107ba57600080fd5b5061035f6107c9366004611fe4565b6116d2565b3480156107da57600080fd5b5061035f6107e93660046121cf565b611756565b6000600882604051610800919061221d565b9081526040519081900360200190205460ff1692915050565b610821611769565b6000600882604051610833919061221d565b908152604051908190036020018120805492151560ff19909316929092179091557f5d689b0e5badbab766b19be0c0b89e98b1c3525dc9762f3169c7be9fc1602ef4906108839083904290612265565b60405180910390a150565b600080806001600160a01b038416156108c1576001600160a01b03808516600090815260056020526040902054166108ce565b6006546001600160a01b03165b90506001600160a01b0381166109225760405162461bcd60e51b8152602060048201526019602482015278141c9a58d94819995959081b9bdd0818dbdb999a59dd5c9959603a1b604482015260640161027f565b806001600160a01b031663feaf968c6040518163ffffffff1660e01b815260040160a060405180830381865afa158015610960573d6000803e3d6000fd5b505050506040513d601f19601f8201168201806040525081019061098491906122a1565b50919791965090945050505050565b61099b611769565b6109a3611796565b565b6109ad611769565b6109b56117e8565b6001600160a01b0381166109ff5760405162461bcd60e51b8152602060048201526011602482015270125b9d985b1a59081c9958da5c1a595b9d607a1b604482015260640161027f565b6001600160a01b038316610afc5781471015610a5d5760405162461bcd60e51b815260206004820152601860248201527f496e73756666696369656e74204554482062616c616e63650000000000000000604482015260640161027f565b6000816001600160a01b03168360405160006040518083038185875af1925050503d8060008114610aaa576040519150601f19603f3d011682016040523d82523d6000602084013e610aaf565b606091505b5050905080610af65760405162461bcd60e51b8152602060048201526013602482015272115512081d1c985b9cd9995c8819985a5b1959606a1b604482015260640161027f565b50610b10565b610b106001600160a01b038416828461180b565b604080518381524260208201526001600160a01b0380841692908616917fbbae553982d541d38dacb1ea468ac757f324d0e279b6e4a2958f9e894da575ff910160405180910390a3505050565b610b65611769565b6000600782604051610b77919061221d565b908152604051908190036020018120805492151560ff19909316929092179091557f6f840862762ab2140262affe05855c4290d4c8c8ae62514860be324c254d1ff1906108839083904290612265565b610bcf611769565b6109a3600061186a565b6000610be36118ba565b610beb6118e4565b858585858566038d7ea4c68000841015610c3e5760405162461bcd60e51b8152602060048201526014602482015273416d6f756e742062656c6f77206d696e696d756d60601b604482015260640161027f565b600a83511015610c875760405162461bcd60e51b815260206004820152601460248201527324b73b30b634b210383437b73290373ab6b132b960611b604482015260640161027f565b600882604051610c97919061221d565b9081526040519081900360200190205460ff16610cee5760405162461bcd60e51b815260206004820152601560248201527410dbdd5b9d1c9e481b9bdd081cdd5c1c1bdc9d1959605a1b604482015260640161027f565b600781604051610cfe919061221d565b9081526040519081900360200190205460ff16610d565760405162461bcd60e51b8152602060048201526016602482015275141c9bdd9a59195c881b9bdd081cdd5c1c1bdc9d195960521b604482015260640161027f565b6001600160a01b038516610dae57833414610da95760405162461bcd60e51b815260206004820152601360248201527208aa89040c2dadeeadce840dad2e6dac2e8c6d606b1b604482015260640161027f565b610eb4565b3415610dfc5760405162461bcd60e51b815260206004820152601c60248201527f4554482073656e74207769746820746f6b656e207472616e7366657200000000604482015260640161027f565b6040516370a0823160e01b815233600482015284906001600160a01b038716906370a0823190602401602060405180830381865afa158015610e42573d6000803e3d6000fd5b505050506040513d601f19601f82011682018060405250810190610e6691906122f1565b1015610eb45760405162461bcd60e51b815260206004820152601a60248201527f496e73756666696369656e7420746f6b656e2062616c616e6365000000000000604482015260640161027f565b600a54604051610ed49133918e918e918e918e918e91429160200161230a565b60408051601f1981840301815291815281516020928301206000818152600990935291205490965060ff1615610f445760405162461bcd60e51b8152602060048201526015602482015274223ab83634b1b0ba32903a3930b739b0b1ba34b7b760591b604482015260640161027f565b6000610f508c8c611908565b905060008111610f9b5760405162461bcd60e51b815260206004820152601660248201527524b73b30b634b2102aa9a21031b7b73b32b939b4b7b760511b604482015260640161027f565b6000610fa88d8d8a611b39565b600a80549192506000610fba836123a7565b919050555081600b6000828254610fd191906123c0565b925050819055506001600960008a815260200190815260200160002060006101000a81548160ff0219169083151502179055508c6001600160a01b0316336001600160a01b0316897facf46fd934181961784e06d92e08aebdfb9dd4e38ce3af31c9feac1cca034511848f8f8f8942604051611052969594939291906123d3565b60405180910390a45050505050505061106a60018055565b95945050505050565b61107b611769565b6001600160a01b0381166110c65760405162461bcd60e51b8152602060048201526012602482015271125b9d985b1a59081c1c9a58d9481999595960721b604482015260640161027f565b6001600160a01b0382811660008181526005602090815260409182902080546001600160a01b031916948616948517905590514281527f9133c44a288cf07c9e3c56b4d0cb5982200a180e0c9ea030485ca93950ef19bf910160405180910390a35050565b336000908152600c602052604090205460ff168061115357506000546001600160a01b031633145b6111995760405162461bcd60e51b81526020600482015260176024820152762737ba1030baba3437b934bd32b21037b832b930ba37b960491b604482015260640161027f565b60008281526009602052604090205460ff166111ec5760405162461bcd60e51b8152602060048201526012602482015271125b9d985b1a59081c995c5d595cdd08125160721b604482015260640161027f565b817feb0989ab516a5d9116892d747db45aacb7c7102c62f16c5bc2115e6e1ecc513b824260405161121e929190612265565b60405180910390a25050565b6001600160a01b0381166000908152600c602052604081205460ff168061125e57506000546001600160a01b038381169116145b92915050565b61126c611769565b6109a3611cab565b61127c611769565b6101f48111156112c25760405162461bcd60e51b815260206004820152601160248201527008ccaca40e4c2e8ca40e8dede40d0d2ced607b1b604482015260640161027f565b600355565b6112cf611769565b6001600160a01b0381166113185760405162461bcd60e51b815260206004820152601060248201526f24b73b30b634b21037b832b930ba37b960811b604482015260640161027f565b6001600160a01b0381166000818152600c602052604090819020805460ff19166001179055517fcbcb793495a5fd793da61a1d62ab99b58925f94b0a61beeec3ea7d7d6c4f25949061136d9042815260200190565b60405180910390a250565b611380611769565b6001600160a01b0381166113ce5760405162461bcd60e51b815260206004820152601560248201527424b73b30b634b2103332b29031b7b63632b1ba37b960591b604482015260640161027f565b600480546001600160a01b0319166001600160a01b0392909216919091179055565b6113f8611769565b6001600160a01b0381166000818152600c602052604090819020805460ff19169055517f2360404a74478febece1a14f11275f22ada88d19ef96f7d785913010bfff44799061136d9042815260200190565b611452611769565b61145b81611ce8565b50565b611466611769565b6001600160a01b0381166114b15760405162461bcd60e51b8152602060048201526012602482015271125b9d985b1a59081c1c9a58d9481999595960721b604482015260640161027f565b600680546001600160a01b0319166001600160a01b0383169081179091556040514281526000907f9133c44a288cf07c9e3c56b4d0cb5982200a180e0c9ea030485ca93950ef19bf9060200160405180910390a350565b600080600080600a54600b5460035461152360025460ff1690565b935093509350935090919293565b611539611769565b61145b81611d93565b336000908152600c602052604090205460ff168061156a57506000546001600160a01b031633145b6115b05760405162461bcd60e51b81526020600482015260176024820152762737ba1030baba3437b934bd32b21037b832b930ba37b960491b604482015260640161027f565b60008381526009602052604090205460ff166116035760405162461bcd60e51b8152602060048201526012602482015271125b9d985b1a59081c995c5d595cdd08125160721b604482015260640161027f565b811561164b57827f36796c4b92b8c2b6a7cfe50b2de3d8d99cfa99a3956394f9002fd6a9abdf2e056001834260405161163e93929190612428565b60405180910390a2505050565b827f36796c4b92b8c2b6a7cfe50b2de3d8d99cfa99a3956394f9002fd6a9abdf2e056000834260405161163e93929190612428565b505050565b6000600782604051610800919061221d565b61169f611769565b6001600160a01b0381166116c957604051631e4fbdf760e01b81526000600482015260240161027f565b61145b8161186a565b60006001600160a01b0382166116e9575047919050565b6040516370a0823160e01b81523060048201526001600160a01b038316906370a0823190602401602060405180830381865afa15801561172d573d6000803e3d6000fd5b505050506040513d601f19601f8201168201806040525081019061125e91906122f1565b919050565b60006117628383611908565b9392505050565b6000546001600160a01b031633146109a35760405163118cdaa760e01b815233600482015260240161027f565b61179e6117e8565b6002805460ff191690557f5db9ee0a495bf2e6ff9c91a7834c1ba4fdd244a5e8aa4e537bd38aeae4b073aa335b6040516001600160a01b03909116815260200160405180910390a1565b60025460ff166109a357604051638dfc202b60e01b815260040160405180910390fd5b6040516001600160a01b0383811660248301526044820183905261168091859182169063a9059cbb906064015b604051602081830303815290604052915060e01b6020820180516001600160e01b038381831617835250505050611e3d565b600080546001600160a01b038381166001600160a01b0319831681178455604051919092169283917f8be0079c531659141344cd1fd0a4f28419497f9722a3daafe3b4186f6b6457e09190a35050565b6002600154036118dd57604051633ee5aeb560e01b815260040160405180910390fd5b6002600155565b60025460ff16156109a35760405163d93c066560e01b815260040160405180910390fd5b6000806001600160a01b03841661192b57506006546001600160a01b0316611990565b506001600160a01b0380841660009081526005602052604090205416806119905760405162461bcd60e51b8152602060048201526019602482015278141c9a58d94819995959081b9bdd0818dbdb999a59dd5c9959603a1b604482015260640161027f565b600080826001600160a01b031663feaf968c6040518163ffffffff1660e01b815260040160a060405180830381865afa1580156119d1573d6000803e3d6000fd5b505050506040513d601f19601f820116820180604052508101906119f591906122a1565b5093505092505060008213611a3c5760405162461bcd60e51b815260206004820152600d60248201526c496e76616c696420707269636560981b604482015260640161027f565b611a48610e1042612453565b8111611a8b5760405162461bcd60e51b8152602060048201526012602482015271141c9a58d94819185d18481d1bdbc81bdb1960721b604482015260640161027f565b60006001600160a01b038716611aa357506012611b0f565b866001600160a01b031663313ce5676040518163ffffffff1660e01b8152600401602060405180830381865afa925050508015611afd575060408051601f3d908101601f19168201909252611afa91810190612466565b60015b611b0957506012611b0f565b60ff1690505b611b1a81600a61256d565b611b248488612579565b611b2e9190612590565b979650505050505050565b600354829015611c8757600061271060035485611b569190612579565b611b609190612590565b9050611b6c8185612453565b91506001600160a01b038516611c1b576004546040516000916001600160a01b03169083908381818185875af1925050503d8060008114611bc9576040519150601f19603f3d011682016040523d82523d6000602084013e611bce565b606091505b5050905080611c155760405162461bcd60e51b8152602060048201526013602482015272119959481d1c985b9cd9995c8819985a5b1959606a1b604482015260640161027f565b50611c37565b600454611c37906001600160a01b038781169133911684611eb4565b600454604080518381526001600160a01b039092166020830152429082015283907f8d0a66b92fb5d5d906102b70251287ffb5254f3578eb366555f99042e800633f9060600160405180910390a2505b6001600160a01b03841615611762576117626001600160a01b038516333084611eb4565b611cb36118e4565b6002805460ff191660011790557f62e78cea01bee320cd4e420270b5ea74000d11b0c9f74754ebdbfc544b05a2586117cb3390565b6000815111611d315760405162461bcd60e51b8152602060048201526015602482015274496e76616c69642070726f766964657220636f646560581b604482015260640161027f565b6001600782604051611d43919061221d565b908152604051908190036020018120805492151560ff19909316929092179091557ff083c4fb73c9e6df4d08b4605c1a92c56d967d8fb66d96438b4e78349cf5a5a7906108839083904290612265565b8051600214611ddb5760405162461bcd60e51b8152602060048201526014602482015273496e76616c696420636f756e74727920636f646560601b604482015260640161027f565b6001600882604051611ded919061221d565b908152604051908190036020018120805492151560ff19909316929092179091557ff464db501510e8bbed44605f63fe36d73807cb733cb64eaa262bb31227eed042906108839083904290612265565b600080602060008451602086016000885af180611e60576040513d6000823e3d81fd5b50506000513d91508115611e78578060011415611e85565b6001600160a01b0384163b155b15611eae57604051635274afe760e01b81526001600160a01b038516600482015260240161027f565b50505050565b6040516001600160a01b038481166024830152838116604483015260648201839052611eae9186918216906323b872dd90608401611838565b634e487b7160e01b600052604160045260246000fd5b600082601f830112611f1457600080fd5b813567ffffffffffffffff80821115611f2f57611f2f611eed565b604051601f8301601f19908116603f01168101908282118183101715611f5757611f57611eed565b81604052838152866020858801011115611f7057600080fd5b836020870160208301376000602085830101528094505050505092915050565b600060208284031215611fa257600080fd5b813567ffffffffffffffff811115611fb957600080fd5b611fc584828501611f03565b949350505050565b80356001600160a01b038116811461175157600080fd5b600060208284031215611ff657600080fd5b61176282611fcd565b60008060006060848603121561201457600080fd5b61201d84611fcd565b92506020840135915061203260408501611fcd565b90509250925092565b600080600080600060a0868803121561205357600080fd5b61205c86611fcd565b945060208601359350604086013567ffffffffffffffff8082111561208057600080fd5b61208c89838a01611f03565b945060608801359150808211156120a257600080fd5b6120ae89838a01611f03565b935060808801359150808211156120c457600080fd5b506120d188828901611f03565b9150509295509295909350565b600080604083850312156120f157600080fd5b6120fa83611fcd565b915061210860208401611fcd565b90509250929050565b6000806040838503121561212457600080fd5b82359150602083013567ffffffffffffffff81111561214257600080fd5b61214e85828601611f03565b9150509250929050565b60006020828403121561216a57600080fd5b5035919050565b60008060006060848603121561218657600080fd5b833592506020840135801515811461219d57600080fd5b9150604084013567ffffffffffffffff8111156121b957600080fd5b6121c586828701611f03565b9150509250925092565b600080604083850312156121e257600080fd5b6121eb83611fcd565b946020939093013593505050565b60005b838110156122145781810151838201526020016121fc565b50506000910152565b6000825161222f8184602087016121f9565b9190910192915050565b600081518084526122518160208601602086016121f9565b601f01601f19169290920160200192915050565b6040815260006122786040830185612239565b90508260208301529392505050565b805169ffffffffffffffffffff8116811461175157600080fd5b600080600080600060a086880312156122b957600080fd5b6122c286612287565b94506020860151935060408601519250606086015191506122e560808701612287565b90509295509295909350565b60006020828403121561230357600080fd5b5051919050565b60006bffffffffffffffffffffffff19808b60601b168352808a60601b166014840152508760288301528651612347816048850160208b016121f9565b86519083019061235e816048840160208b016121f9565b8651910190612374816048840160208a016121f9565b016048810194909452505060688201526088019695505050505050565b634e487b7160e01b600052601160045260246000fd5b6000600182016123b9576123b9612391565b5060010190565b8082018082111561125e5761125e612391565b86815260c0602082015260006123ec60c0830188612239565b82810360408401526123fe8188612239565b905082810360608401526124128187612239565b6080840195909552505060a00152949350505050565b83151581526060602082015260006124436060830185612239565b9050826040830152949350505050565b8181038181111561125e5761125e612391565b60006020828403121561247857600080fd5b815160ff8116811461176257600080fd5b600181815b808511156124c45781600019048211156124aa576124aa612391565b808516156124b757918102915b93841c939080029061248e565b509250929050565b6000826124db5750600161125e565b816124e85750600061125e565b81600181146124fe576002811461250857612524565b600191505061125e565b60ff84111561251957612519612391565b50506001821b61125e565b5060208310610133831016604e8410600b8410161715612547575081810a61125e565b6125518383612489565b806000190482111561256557612565612391565b029392505050565b600061176283836124cc565b808202811582820484141761125e5761125e612391565b6000826125ad57634e487b7160e01b600052601260045260246000fd5b50049056fea2646970667358221220524052ac25e59c5849709d48a1b07ef3e5bb2716522e76fbeb10400aadb4b8ca64736f6c63430008180033a264697066735822122099e470d49025f73a4ac4756b56a0b603a3e2c0de695005847e4444f9333f91df64736f6c63430008180033",
  "linkReferences": {},
  "deployedLinkReferences": {}
}